:100000000C942A000C9447000C9447000C94470071
:100010000C94E90D0C94BC0D0C9447000C94620DEB
:100020000C948F0D0C94350D0C94DB0C0C94080D76
:100030000C9447000C9447000C9447000C94470024
:100040000C94A3050C9447000C9447000C944700B3
:100050000C94470011241FBECFE5D8E0DEBFCDBF12
:1000600010E0A8E6B0E001C01D92AE37B107E1F79D
:1000700010E0A0E6B0E0E8E9FCE402C005900D92D3
:10008000A836B107D9F70E94E3250C944A260C94B0
:100090000000EF92FF920F931F937B018C0120E0F1
:1000A00030E040E05FE40E94490388238CF0C801FF
:1000B000B70120E030E040E05FE40E94C1010E940F
:1000C000A9039B01AC01205030404040504806C07D
:1000D000C801B7010E94A9039B01AC01B901CA0183
:1000E0001F910F91FF90EF900895A0E0B0E0EBE733
:1000F000F0E00C941326DC012B01FA019C91923064
:1001000008F439C1EB018881823008F433C194309E
:1001100069F4843009F02FC111969C91119789815F
:10012000981709F428C1A0E6B0E025C1843009F48D
:1001300021C18230A9F4923009F01DC19A01AD01AC
:1001400088E0EA010990AE01E90109929E0181501F
:10015000C1F7E201898111969C918923818308C1AD
:10016000923009F407C112962D903C901397EB0141
:100170008A819B811496AD90BD90CD90DC901797AD
:10018000EC80FD800E811F819101281B390BB90184
:1001900037FF04C066277727621B730B6032710537
:1001A0000CF061C0121613066CF537014801062EDB
:1001B00004C096948794779467940A94D2F721E0C8
:1001C00030E040E050E004C0220F331F441F551FB1
:1001D0006A95D2F721503040404050402E213F21B7
:1001E00040235123211531054105510521F021E01E
:1001F00030E040E050E079018A01E628F72808293C
:1002000019293CC0232BD1F1260E371E350146019A
:10021000062E04C096948794779467940A94D2F734
:1002200021E030E040E050E004C0220F331F441FC3
:10023000551F6A95D2F721503040404050402A2146
:100240003B214C215D21211531054105510521F04E
:1002500021E030E040E050E059016A01A628B728CB
:10026000C828D9280BC0821593052CF01C01AA249C
:10027000BB24650103C0EE24FF24870111969C91E5
:10028000D20111968C91981709F445C0992339F041
:10029000A80197012A193B094C095D0906C0A6016E
:1002A00095012E193F09400B510B57FD08C01182D3
:1002B0003382228224833583468357831DC081E0A5
:1002C00081833382228288279927DC01821B930B4A
:1002D000A40BB50B84839583A683B7830DC0220F2F
:1002E000331F441F551F24833583468357838281E0
:1002F000938101979383828324813581468157813D
:10030000DA01C9010197A109B1098F5F9F4FAF4F72
:10031000BF4328F30BC0918333822282EA0CFB1C7B
:100320000C1D1D1DE482F5820683178383E0808304
:10033000248135814681578157FF1AC0C901AA27F8
:1003400097FDA095BA2F81709070A070B0705695EF
:10035000479537952795822B932BA42BB52B848318
:100360009583A683B7838281938101969383828349
:10037000DF0101C0D201CD01CDB7DEB7E2E10C94BF
:100380002F26A0E2B0E0E7ECF1E00C941F26698391
:100390007A838B839C832D833E834F835887E9E048
:1003A000EE2EF12CEC0EFD1ECE010196B7010E943F
:1003B000D2048E010F5E1F4FCE010596B8010E9438
:1003C000D2048A8991E089278A8BC701B801AE01DE
:1003D000475E5F4F0E9475000E94FD03A096E6E015
:1003E0000C943B26A0E2B0E0E8EFF1E00C941F266D
:1003F00069837A838B839C832D833E834F835887C5
:10040000F9E0EF2EF12CEC0EFD1ECE010196B701A6
:100410000E94D2048E010F5E1F4FCE010596B801D7
:100420000E94D204C701B801AE01475E5F4F0E942F
:1004300075000E94FD03A096E6E00C943B26A0E226
:10044000B0E0E5E2F2E00C94132669837A838B83B3
:100450009C832D833E834F835887CE010196BE0136
:10046000675F7F4F0E94D204CE010596BE016F5E8A
:100470007F4F0E94D2049985923088F0898982301A
:10048000C8F0943019F4823051F404C0843029F457
:10049000923081F480E690E0C6C0923049F420E0CA
:1004A0009A858A89981321E02A87CE010996BBC0D4
:1004B000823049F420E09A858A89981321E02A8BBA
:1004C000CE014196B0C02D843E844F8458886D88FB
:1004D0007E888F88988CEE24FF248701AA24BB2471
:1004E000650140E050E060E070E0E0E0F0E0C10174
:1004F00081709070892BE9F0E60CF71C081D191D1E
:100500009A01AB012A0D3B1D4C1D5D1D80E090E062
:10051000A0E0B0E0E614F7040805190520F481E036
:1005200090E0A0E0B0E0BA01A901480F591F6A1F8E
:100530007B1FAA0CBB1CCC1CDD1C97FE08C081E0F5
:1005400090E0A0E0B0E0A82AB92ACA2ADB2A3196B6
:10055000E032F10549F0660C771C881C991C569412
:10056000479437942794C3CFFA85EA892B893C892D
:100570008B859C85280F391F2E5F3F4F17C0CA01FE
:1005800081709070892B61F016950795F794E79428
:1005900080E090E0A0E0B0E8E82AF92A0A2B1B2BC3
:1005A00076956795579547952F5F3F4F77FDE7CF36
:1005B0000CC0440F551F661F771F17FD4160EE0CDE
:1005C000FF1C001F111F21503040403090E05907A0
:1005D00090E0690790E4790760F32B8F3C8FDB0193
:1005E000CA018F779070A070B07080349105A1051A
:1005F000B10561F447FD0AC0E114F10401051105DC
:1006000029F0405C5F4F6F4F7F4F40781A8EFE1786
:1006100011F081E08A8F4D8F5E8F6F8F78A383E01A
:10062000898FCE0149960E94FD03A096E2E10C94C9
:100630002F26A8E1B0E0EFE1F3E00C941F266983D8
:100640007A838B839C832D833E834F83588789E0F5
:10065000E82EF12CEC0EFD1ECE010196B7010E9492
:10066000D2048E010F5E1F4FCE010596B8010E9485
:10067000D2048985823040F08989823028F0C70110
:10068000B8010E944A0501C08FEF6896E6E00C941D
:100690003B26A8E1B0E0EFE4F3E00C941F26698369
:1006A0007A838B839C832D833E834F83588789E095
:1006B000E82EF12CEC0EFD1ECE010196B7010E9432
:1006C000D2048E010F5E1F4FCE010596B8010E9425
:1006D000D2048985823040F08989823028F0C701B0
:1006E000B8010E944A0501C08FEF6896E6E00C94BD
:1006F0003B26A8E1B0E0EFE7F3E00C941F26698306
:100700007A838B839C832D833E834F83588789E034
:10071000E82EF12CEC0EFD1ECE010196B7010E94D1
:10072000D2048E010F5E1F4FCE010596B8010E94C4
:10073000D2048985823040F08989823028F0C7014F
:10074000B8010E944A0501C081E06896E6E00C9479
:100750003B26ACE0B0E0EFEAF3E00C94232669839B
:100760007A838B839C83CE010196BE016B5F7F4FA2
:100770000E94D2048D81823061F1823050F1843048
:1007800021F48E81882351F12EC02F81388537FDC9
:1007900020C06E812F3131051CF06623F9F023C093
:1007A0008EE190E0821B930B29853A854B855C8511
:1007B00004C056954795379527958A95D2F76623B5
:1007C000B1F050954095309521953F4F4F4F5F4F79
:1007D0000EC020E030E040E050E009C02FEF3FEFD6
:1007E0004FEF5FE704C020E030E040E050E8B9019F
:1007F000CA012C96E2E00C943F26DF92EF92FF9222
:100800000F931F93FC01E480F58006811781D1804E
:100810008081823048F480E090E0A0E1B0E0E82AF6
:10082000F92A0A2B1B2BA5C0843009F49FC0823003
:1008300021F4EE24FF24870105C0E114F104010531
:10084000110519F4E0E0F0E096C0628173819FEF3A
:10085000623879070CF05BC022E83FEF261B370BAC
:100860002A3131052CF020E030E040E050E02AC091
:10087000B801A701022E04C0769567955795479554
:100880000A94D2F781E090E0A0E0B0E004C0880FC5
:10089000991FAA1FBB1F2A95D2F70197A109B10979
:1008A0008E219F21A023B1230097A105B10521F03E
:1008B00081E090E0A0E0B0E09A01AB01282B392B59
:1008C0004A2B5B2BDA01C9018F779070A070B07052
:1008D00080349105A105B10539F427FF09C0205CDA
:1008E0003F4F4F4F5F4F04C0215C3F4F4F4F5F4F13
:1008F000E0E0F0E02030A0E03A07A0E04A07A0E402
:100900005A0710F0E1E0F0E079018A0127C0603871
:10091000710564F5FB01E158FF4FD801C7018F77DE
:100920009070A070B07080349105A105B10539F4C4
:10093000E7FE0DC080E490E0A0E0B0E004C08FE3EB
:1009400090E0A0E0B0E0E80EF91E0A1F1B1F17FFA1
:1009500005C016950795F794E794319687E01695AC
:100960000795F794E7948A95D1F705C0EE24FF2404
:100970008701EFEFF0E06E2F679566276795902F60
:100980009F77D794DD24D7948E2F8695492F462BB9
:10099000582F5D29B701CA011F910F91FF90EF9069
:1009A000DF900895FC01DB01408151812281622F9B
:1009B0006F7770E0221F2227221F9381892F880FD3
:1009C000822B282F30E0991F9927991F11969C930D
:1009D000119721153105A9F54115510561057105DD
:1009E00011F482E037C082E89FEF13969C938E93B8
:1009F00012979A01AB0167E0220F331F441F551F66
:100A00006A95D1F783E08C930DC0220F331F441FEA
:100A1000551F12968D919C911397019713969C9355
:100A20008E931297203080E0380780E0480780E4FA
:100A3000580758F314962D933D934D935C93179755
:100A400008952F3F310579F4411551056105710570
:100A500019F484E08C93089564FF03C081E08C93C3
:100A600012C01C9210C02F57304013963C932E9307
:100A7000129783E08C9387E0440F551F661F771F02
:100A80008A95D1F7706414964D935D936D937C9322
:100A9000179708951F93DC01FB019C91923008F495
:100AA00047C08081823008F443C0943051F41196DD
:100AB0001C91843099F58181682F70E0611B710968
:100AC0003FC0843021F0923031F48230B9F181811D
:100AD000882389F12DC011961C9111978230F1F075
:100AE00081811817D9F412962D913C911397828128
:100AF00093818217930794F028173907BCF0149656
:100B00008D919D910D90BC91A02D248135814681C0
:100B10005781281739074A075B0718F4112341F05A
:100B20000AC082179307A407B50740F4112319F0F0
:100B300061E070E005C06FEF7FEF02C060E070E041
:100B4000CB011F9108951F920F920FB60F9211249F
:100B50002F933F934F935F936F937F938F939F93C5
:100B6000AF93BF93EF93FF93DF93CF93CDB7DEB7F0
:100B70002091680030916900E4E2F0E08081918189
:100B80009370F9010995CF91DF91FF91EF91BF919A
:100B9000AF919F918F917F916F915F914F913F9115
:100BA0002F910F900FBE0F901F901895DF93CF934A
:100BB000CDB7DEB7A7E2B0E0E7E2F0E080818F7763
:100BC0008C93A7E2B0E0E7E2F0E080818F7B8C932A
:100BD000A7E2B0E0E7E2F0E080818F7D8C93A6E2AF
:100BE000B0E0E6E2F0E0808180688C93A6E2B0E0BD
:100BF000E6E2F0E0808188608C930E94BF0CA6E260
:100C0000B0E0E6E2F0E0808181608C93A6E2B0E0A3
:100C1000E6E2F0E0808182608C93A6E2B0E0E6E25A
:100C2000F0E0808184608C93CF91DF910895DF9311
:100C3000CF930F92CDB7DEB78983A7E2B0E0E7E2AA
:100C4000F0E08081807E8C93A7E2B0E0E7E2F0E004
:100C500090818981892B8C93A6E2B0E0E6E2F0E0F6
:100C6000808180648C930F90CF91DF910895DF9302
:100C7000CF93CDB7DEB7A6E2B0E0E6E2F0E0808148
:100C800080688C93CF91DF910895DF93CF93CDB798
:100C9000DEB7A6E2B0E0E6E2F0E080818F778C93E9
:100CA000CF91DF910895DF93CF9300D00F92CDB70E
:100CB000DEB79B838A831982E6E2F0E08081829529
:100CC0008F70882F90E081709070882391F0A6E259
:100CD000B0E0E6E2F0E0808180618C93E4E2F0E055
:100CE000808191819370EA81FB819183808381E08F
:100CF000898389810F900F900F90CF91DF91089594
:100D0000DF93CF93CDB7DEB7E6E2F0E08081829546
:100D10008F70882F90E0817090700097A9F3E4E2C3
:100D2000F0E0808191819370CF91DF910895DF93FE
:100D3000CF9300D0CDB7DEB79A83898389819A811A
:100D400090936900809368000F900F90CF91DF918E
:100D50000895DF93CF93CDB7DEB729970FB6F894F8
:100D6000DEBF0FBECDBF89836A834B838B8188230F
:100D700009F0C2C08981282F30E03987288788850B
:100D800099858130910509F43FC028853985223045
:100D900031052CF488859985009771F0E1C128858B
:100DA00039852230310509F457C08885998583300B
:100DB000910509F479C0D4C1AAE3B0E0EAE3F0E018
:100DC0008081482F8A81282F30E081E090E002C0A6
:100DD000880F991F2A95E2F7809584238C93ABE3C3
:100DE000B0E0EBE3F0E08081482F8A81282F30E0EB
:100DF00081E090E0022E02C0880F991F0A94E2F76A
:100E0000809584238C93ACC1A7E3B0E0E7E3F0E0E6
:100E10008081482F8A81282F30E081E090E002C055
:100E2000880F991F2A95E2F7809584238C93A8E375
:100E3000B0E0E8E3F0E08081482F8A81282F30E09D
:100E400081E090E0022E02C0880F991F0A94E2F719
:100E5000809584238C9384C1A4E3B0E0E4E3F0E0C4
:100E60008081482F8A81282F30E081E090E002C005
:100E7000880F991F2A95E2F7809584238C93A5E328
:100E8000B0E0E5E3F0E08081482F8A81282F30E050
:100E900081E090E0022E02C0880F991F0A94E2F7C9
:100EA000809584238C935CC1A1E3B0E0E1E3F0E0A2
:100EB0008081482F8A81282F30E081E090E002C0B5
:100EC000880F991F2A95E2F7809584238C93A2E3DB
:100ED000B0E0E2E3F0E08081482F8A81282F30E003
:100EE00081E090E0022E02C0880F991F0A94E2F779
:100EF000809584238C9334C18B81813009F0BEC0EE
:100F00008981282F30E03F832E838E819F8181301D
:100F1000910509F43EC02E813F81223031052CF429
:100F20008E819F81009771F01BC12E813F812230FD
:100F3000310509F455C08E819F818330910509F4F4
:100F400076C00EC1AAE3B0E0EAE3F0E08081482F6A
:100F50008A81282F30E081E090E002C0880F991F3D
:100F60002A95E2F7809584238C93ABE3B0E0EBE322
:100F7000F0E08081482F8A81282F30E081E090E0E6
:100F8000022E02C0880F991F0A94E2F7842B8C93DB
:100F9000E7C0A7E3B0E0E7E3F0E08081482F8A8173
:100FA000282F30E081E090E002C0880F991F2A9539
:100FB000E2F7809584238C93A8E3B0E0E8E3F0E0C7
:100FC0008081482F8A81282F30E081E090E0022E36
:100FD00002C0880F991F0A94E2F7842B8C93C0C03B
:100FE000A4E3B0E0E4E3F0E08081482F8A81282F79
:100FF00030E081E090E002C0880F991F2A95E2F767
:10100000809584238C93A5E3B0E0E5E3F0E0808154
:10101000482F8A81282F30E081E090E0022E02C024
:10102000880F991F0A94E2F7842B8C9399C0A1E34F
:10103000B0E0E1E3F0E08081482F8A81282F30E0A2
:1010400081E090E002C0880F991F2A95E2F7809511
:1010500084238C93A2E3B0E0E2E3F0E08081482FA8
:101060008A81282F30E081E090E0022E02C0880FB4
:10107000991F0A94E2F7842B8C9372C08B81823083
:1010800009F06EC08981282F30E03D832C838C814C
:101090009D818130910549F12C813D8122303105BE
:1010A0002CF48C819D81009761F05AC02C813D8188
:1010B0002230310571F18C819D8183309105E9F1F8
:1010C0004FC0AAE3B0E0EAE3F0E08081482F8A81D4
:1010D000282F30E081E090E0022E02C0880F991F97
:1010E0000A94E2F7842B8C933BC0A7E3B0E0E7E3DC
:1010F000F0E08081482F8A81282F30E081E090E065
:10110000022E02C0880F991F0A94E2F7842B8C9359
:1011100027C0A4E3B0E0E4E3F0E08081482F8A81B7
:10112000282F30E081E090E0022E02C0880F991F46
:101130000A94E2F7842B8C9313C0A1E3B0E0E1E3BF
:10114000F0E08081482F8A81282F30E081E090E014
:10115000022E02C0880F991F0A94E2F7842B8C9309
:1011600029960FB6F894DEBF0FBECDBFCF91DF91A9
:101170000895DF93CF93CDB7DEB72A970FB6F894D3
:10118000DEBF0FBECDBF89836A838A818823D9F5EC
:101190008981282F30E03A87298789859A8581308F
:1011A0009105E1F029853A85223031052CF48985B5
:1011B0009A85009761F0D2C029853A8522303105A1
:1011C000A1F089859A8583309105B1F0C7C0EAE323
:1011D000F0E01082EBE3F0E01082C0C0E7E3F0E063
:1011E0001082E8E3F0E01082B9C0E4E3F0E010829E
:1011F000E5E3F0E01082B2C0E1E3F0E01082E2E368
:10120000F0E01082ABC08A81813009F03FC0898153
:10121000282F30E038872F838F8198858130910582
:10122000E9F02F813885223031052CF48F819885A3
:10123000009761F093C02F81388522303105B1F0DD
:101240008F81988583309105C9F088C0EAE3F0E08A
:101250001082EBE3F0E08FEF808380C0E7E3F0E003
:101260001082E8E3F0E08FEF808378C0E4E3F0E001
:101270001082E5E3F0E08FEF808370C0E1E3F0E0FF
:101280001082E2E3F0E08FEF808368C08A818230D1
:1012900099F58981282F30E03E832D838D819E81B1
:1012A00081309105D1F02D813E81223031052CF421
:1012B0008D819E81009761F051C02D813E81223049
:1012C000310581F08D819E818330910581F046C08A
:1012D000EAE3F0E08FEF808341C0E7E3F0E08FEFD7
:1012E00080833CC0E4E3F0E08FEF808337C0E1E32C
:1012F000F0E08FEF808332C08981282F30E03C837B
:101300002B838B819C8181309105D1F02B813C8195
:10131000223031052CF48B819C81009761F01EC036
:101320002B813C812230310581F08B819C8183307F
:10133000910581F013C0EAE3F0E08A8180830EC05A
:10134000E7E3F0E08A81808309C0E4E3F0E08A818A
:10135000808304C0E1E3F0E08A8180832A960FB69F
:10136000F894DEBF0FBECDBFCF91DF910895DF931C
:10137000CF93CDB7DEB727970FB6F894DEBF0FBE79
:10138000CDBF89836A834B838B81813009F06FC025
:101390008981282F30E03F832E838E819F81813089
:1013A000910549F12E813F81223031052CF48E8147
:1013B0009F81009761F0D2C02E813F81223031059C
:1013C00071F18E819F8183309105E9F1C7C0ABE354
:1013D000B0E0EBE3F0E08081482F8A81282F30E0F5
:1013E00081E090E0022E02C0880F991F0A94E2F774
:1013F000842B8C93B3C0A8E3B0E0E8E3F0E08081F5
:10140000482F8A81282F30E081E090E0022E02C030
:10141000880F991F0A94E2F7842B8C939FC0A5E351
:10142000B0E0E5E3F0E08081482F8A81282F30E0AA
:1014300081E090E0022E02C0880F991F0A94E2F723
:10144000842B8C938BC0A2E3B0E0E2E3F0E08081D8
:10145000482F8A81282F30E081E090E0022E02C0E0
:10146000880F991F0A94E2F7842B8C9377C08B81A5
:10147000882309F073C08981282F30E03D832C83B5
:101480008C819D818130910559F12C813D812230E3
:1014900031052CF48C819D81009769F05FC02C810F
:1014A0003D812230310589F18C819D818330910508
:1014B00009F440C053C0ABE3B0E0EBE3F0E080815F
:1014C000482F8A81282F30E081E090E0022E02C070
:1014D000880F991F0A94E2F7809584238C933EC06D
:1014E000A8E3B0E0E8E3F0E08081482F8A81282F6C
:1014F00030E081E090E0022E02C0880F991F0A942C
:10150000E2F7809584238C9329C0A5E3B0E0E5E35E
:10151000F0E08081482F8A81282F30E081E090E040
:10152000022E02C0880F991F0A94E2F78095842347
:101530008C9314C0A2E3B0E0E2E3F0E08081482F96
:101540008A81282F30E081E090E0022E02C0880FCF
:10155000991F0A94E2F7809584238C9327960FB6FF
:10156000F894DEBF0FBECDBFCF91DF910895DF931A
:10157000CF93CDB7DEB728970FB6F894DEBF0FBE76
:10158000CDBF89836A838A81813099F58981282F2B
:1015900030E038872F838F81988581309105D1F095
:1015A0002F813885223031052CF48F819885009762
:1015B00061F083C02F8138852230310581F08F8121
:1015C00098858330910581F078C0EBE3F0E08FEFF0
:1015D000808373C0E8E3F0E08FEF80836EC0E5E3C3
:1015E000F0E08FEF808369C0E2E3F0E08FEF80836B
:1015F00064C08A81882379F58981282F30E03E8371
:101600002D838D819E8181309105C9F02D813E8190
:10161000223031052CF48D819E81009761F04DC000
:101620002D813E812230310571F08D819E81833084
:10163000910569F042C0EBE3F0E010823EC0E8E3C0
:10164000F0E010823AC0E5E3F0E0108236C0E2E359
:10165000F0E0108232C08981282F30E03C832B8358
:101660008B819C8181309105D1F02B813C8122308E
:1016700031052CF48B819C81009761F01EC02B8179
:101680003C812230310581F08B819C818330910532
:1016900081F013C0EBE3F0E08A8180830EC0E8E3C1
:1016A000F0E08A81808309C0E5E3F0E08A818083ED
:1016B00004C0E2E3F0E08A81808328960FB6F894B4
:1016C000DEBF0FBECDBFCF91DF910895DF93CF93E3
:1016D00000D000D00F92CDB7DEB78A836B8319821A
:1016E0008A81282F30E03D832C834C815D814130FD
:1016F000510541F18C819D818230910534F42C811A
:101700003D812115310561F052C04C815D8142302F
:10171000510551F18C819D8183309105B9F147C00C
:10172000E9E3F0E08081282F30E08B81882F90E082
:10173000A90102C0559547958A95E2F7CA018170C3
:10174000898335C0E6E3F0E08081282F30E08B818B
:10175000882F90E0A90102C0559547958A95E2F738
:10176000CA018170898323C0E3E3F0E08081282FE0
:1017700030E08B81882F90E0A90102C055954795F4
:101780008A95E2F7CA018170898311C0E0E3F0E035
:101790008081282F30E08B81882F90E0A90102C042
:1017A000559547958A95E2F7CA01817089838981A9
:1017B0000F900F900F900F900F90CF91DF910895A1
:1017C000DF93CF9300D000D0CDB7DEB78A831982E4
:1017D0008A81282F30E03C832B838B819C81813050
:1017E000910549F12B813C81223031052CF48B810C
:1017F0009C81009761F05AC02B813C8122303105D9
:1018000071F18B819C8183309105E9F14FC0E9E34F
:10181000F0E080818F3F19F481E0898347C0E9E3DC
:10182000F0E08081882311F4198240C0E9E3F0E000
:10183000808189833BC0E6E3F0E080818F3F19F42B
:1018400081E0898333C0E6E3F0E08081882311F4EE
:1018500019822CC0E6E3F0E08081898327C0E3E3AE
:10186000F0E080818F3F19F481E089831FC0E3E3BA
:10187000F0E08081882311F4198218C0E3E3F0E0DE
:101880008081898313C0E0E3F0E080818F3F19F409
:1018900081E089830BC0E0E3F0E08081882311F4CC
:1018A000198204C0E0E3F0E08081898389810F9090
:1018B0000F900F900F90CF91DF910895DF93CF930A
:1018C000CDB7DEB70E941C17CF91DF910895DF934B
:1018D000CF9300D00F92CDB7DEB789836A834B8355
:1018E0000E942E1789810E9449178A810E944917F8
:1018F0008B810E9449170E943E170F900F900F9006
:10190000CF91DF910895DF93CF9300D0CDB7DEB7AD
:1019100089836A830E942E1789810E9449178A81D0
:101920000E9449170E942E178981816089838981CD
:101930000E9449170E9473170F900F90CF91DF916B
:101940000895DF93CF93CDB7DEB7ABE5B0E0EBE51D
:10195000F0E0808180648C930E94BF0CA5E5B0E02C
:10196000E5E5F0E0808181608C93A5E5B0E0E5E5F8
:10197000F0E080818D7F8C93CF91DF910895DF938C
:10198000CF93CDB7DEB7AFE5B0E0EFE5F0E0808113
:1019900080688C93CF91DF910895DF93CF93CDB77B
:1019A000DEB7AFE5B0E0EFE5F0E080818F778C93B4
:1019B000CF91DF9108951F920F920FB60F921124CD
:1019C0002F933F934F935F936F937F938F939F9347
:1019D000AF93BF93EF93FF93DF93CF93CDB7DEB772
:1019E000E0917000F09171000995CF91DF91FF9126
:1019F000EF91BF91AF919F918F917F916F915F9187
:101A00004F913F912F910F900FBE0F901F901895FF
:101A10001F920F920FB60F9211242F933F934F9363
:101A20005F936F937F938F939F93AF93BF93EF9346
:101A3000FF93DF93CF93CDB7DEB7E0917A00F091BB
:101A40007B000995CF91DF91FF91EF91BF91AF910D
:101A50009F918F917F916F915F914F913F912F91C6
:101A60000F900FBE0F901F9018951F920F920FB6F8
:101A70000F9211242F933F934F935F936F937F9314
:101A80008F939F93AF93BF93EF93FF93DF93CF9386
:101A9000CDB7DEB7E0917C00F0917D000995CF9144
:101AA000DF91FF91EF91BF91AF919F918F917F91C6
:101AB0006F915F914F913F912F910F900FBE0F90BB
:101AC0001F9018951F920F920FB60F9211242F930B
:101AD0003F934F935F936F937F938F939F93AF93B6
:101AE000BF93EF93FF93DF93CF93CDB7DEB7E09132
:101AF0007800F09179000995CF91DF91FF91EF91F6
:101B0000BF91AF919F918F917F916F915F914F9115
:101B10003F912F910F900FBE0F901F9018951F921D
:101B20000F920FB60F9211242F933F934F935F9311
:101B30006F937F938F939F93AF93BF93EF93FF9395
:101B4000DF93CF93CDB7DEB7E0917400F0917500CD
:101B50000995CF91DF91FF91EF91BF91AF919F9147
:101B60008F917F916F915F914F913F912F910F9046
:101B70000FBE0F901F9018951F920F920FB60F92E5
:101B800011242F933F934F935F936F937F938F9382
:101B90009F93AF93BF93EF93FF93DF93CF93CDB713
:101BA000DEB7E0917600F09177000995CF91DF9153
:101BB000FF91EF91BF91AF919F918F917F916F9125
:101BC0005F914F913F912F910F900FBE0F901F90FB
:101BD00018951F920F920FB60F9211242F933F93D7
:101BE0004F935F936F937F938F939F93AF93BF9325
:101BF000EF93FF93DF93CF93CDB7DEB7E091720001
:101C0000F09173000995CF91DF91FF91EF91BF9112
:101C1000AF919F918F917F916F915F914F913F9184
:101C20002F910F900FBE0F901F901895DF93CF93B9
:101C3000CDB7DEB765970FB6F894DEBF0FBECDBF48
:101C40009B838A8381E08983EA81FB818081282FBD
:101C500030E03D8B2C8B8C899D898130910509F476
:101C600092C12C893D89223031052CF48C899D89C3
:101C7000009771F02AC62C893D892230310509F47C
:101C800019C38C899D898330910509F4AAC41DC6A6
:101C9000EA81FB818181882379F4A3E5B0E0E3E563
:101CA000F0E080818F7B8C93A3E5B0E0E3E5F0E08A
:101CB0008081877F8C9315C0EA81FB81818181308F
:101CC00079F4A3E5B0E0E3E5F0E080818F7B8C93CD
:101CD000A3E5B0E0E3E5F0E0808188608C9301C08B
:101CE0001982EA81FB818281282F30E03B8B2A8B8D
:101CF0008A899B898130910521F12A893B8922308B
:101D000031052CF48A899B89009761F047C02A89A4
:101D10003B892230310521F18A899B8983309105E5
:101D200071F13CC0A3E5B0E0E3E5F0E080818F7E97
:101D30008C93A3E5B0E0E3E5F0E080818F7D8C93A8
:101D40002EC0A3E5B0E0E3E5F0E0808180618C93F4
:101D5000A3E5B0E0E3E5F0E080818F7D8C931FC0C8
:101D6000A3E5B0E0E3E5F0E0808180618C93A3E53A
:101D7000B0E0E3E5F0E0808180628C9310C0A3E5E1
:101D8000B0E0E3E5F0E080818F7E8C93A3E5B0E0E6
:101D9000E3E5F0E0808180628C9301C01982EA81E2
:101DA000FB818381282F30E0398B288B88899989A2
:101DB0008430910509F477C02889398925303105A7
:101DC0008CF4888999898130910509F440C028896B
:101DD00039892230310509F450C0888999890097E2
:101DE00001F1CFC0288939892730310509F487C02E
:101DF00088899989883091053CF428893989263069
:101E0000310509F466C0BDC088899989883091057B
:101E100009F48BC0288939892930310509F49BC020
:101E2000B0C0A3E5B0E0E3E5F0E080818E7F8C9365
:101E3000A3E5B0E0E3E5F0E080818D7F8C93A3E53E
:101E4000B0E0E3E5F0E080818B7F8C933FC5A3E5B4
:101E5000B0E0E3E5F0E0808181608C93A3E5B0E041
:101E6000E3E5F0E080818D7F8C93A3E5B0E0E3E5CE
:101E7000F0E080818B7F8C9329C5A3E5B0E0E3E59A
:101E8000F0E080818E7F8C93A3E5B0E0E3E5F0E0A5
:101E9000808182608C93A3E5B0E0E3E5F0E080818F
:101EA0008B7F8C9313C5A3E5B0E0E3E5F0E0808180
:101EB00081608C93A3E5B0E0E3E5F0E0808182608F
:101EC0008C93A3E5B0E0E3E5F0E080818B7F8C9319
:101ED000FDC4A3E5B0E0E3E5F0E080818E7F8C9364
:101EE000A3E5B0E0E3E5F0E080818D7F8C93A3E58E
:101EF000B0E0E3E5F0E0808184608C93E7C4A3E583
:101F0000B0E0E3E5F0E0808181608C93A3E5B0E090
:101F1000E3E5F0E080818D7F8C93A3E5B0E0E3E51D
:101F2000F0E0808184608C93D1C4A3E5B0E0E3E568
:101F3000F0E080818E7F8C93A3E5B0E0E3E5F0E0F4
:101F4000808182608C93A3E5B0E0E3E5F0E08081DE
:101F500084608C93BBC4A3E5B0E0E3E5F0E080814E
:101F600081608C93A3E5B0E0E3E5F0E080818260DE
:101F70008C93A3E5B0E0E3E5F0E0808184608C938E
:101F8000A5C41982A3C4EA81FB8181818823E9F475
:101F9000AFE4B0E0EFE4F0E080818E7F8C93AFE4BB
:101FA000B0E0EFE4F0E080818D7F8C93AEE4B0E0B0
:101FB000EEE4F0E08081877F8C93AEE4B0E0EEE465
:101FC000F0E080818F7E8C9323C0EA81FB81818148
:101FD0008130E9F4AFE4B0E0EFE4F0E080818E7F9F
:101FE0008C93AFE4B0E0EFE4F0E080818D7F8C93E0
:101FF000AEE4B0E0EEE4F0E0808188608C93AEE483
:10200000B0E0EEE4F0E080818F7E8C9301C0198215
:10201000EA81FB818281282F30E03F872E878E85E1
:102020009F858130910521F12E853F852230310534
:102030002CF48E859F85009761F047C02E853F85E3
:102040002230310521F18E859F858330910571F114
:102050003CC0AFE4B0E0EFE4F0E080818F7B8C9394
:10206000AFE4B0E0EFE4F0E080818F778C932EC096
:10207000AFE4B0E0EFE4F0E0808180648C93AFE403
:10208000B0E0EFE4F0E080818F778C931FC0AFE485
:10209000B0E0EFE4F0E0808180648C93AFE4B0E0E6
:1020A000EFE4F0E0808180688C9310C0AFE4B0E092
:1020B000EFE4F0E080818F7B8C93AFE4B0E0EFE45D
:1020C000F0E0808180688C9301C01982EA81FB81F5
:1020D0008381282F30E03D872C878C859D85843037
:1020E000910509F477C02C853D85253031058CF4A8
:1020F0008C859D858130910509F440C02C853D85F6
:102100002230310509F450C08C859D85009701F17E
:10211000CFC02C853D852730310509F487C08C85DB
:102120009D85883091053CF42C853D852630310510
:1021300009F466C0BDC08C859D858830910509F481
:102140008BC02C853D852930310509F49BC0B0C07A
:10215000AEE4B0E0EEE4F0E080818E7F8C93AEE4FC
:10216000B0E0EEE4F0E080818D7F8C93AEE4B0E0EF
:10217000EEE4F0E080818B7F8C93A8C3AEE4B0E006
:10218000EEE4F0E0808181608C93AEE4B0E0EEE4B8
:10219000F0E080818D7F8C93AEE4B0E0EEE4F0E07F
:1021A00080818B7F8C9392C3AEE4B0E0EEE4F0E0EC
:1021B00080818E7F8C93AEE4B0E0EEE4F0E080812D
:1021C00082608C93AEE4B0E0EEE4F0E080818B7F3F
:1021D0008C937CC3AEE4B0E0EEE4F0E080818160FB
:1021E0008C93AEE4B0E0EEE4F0E0808182608C930A
:1021F000AEE4B0E0EEE4F0E080818B7F8C9366C3C8
:10220000AEE4B0E0EEE4F0E080818E7F8C93AEE44B
:10221000B0E0EEE4F0E080818D7F8C93AEE4B0E03E
:10222000EEE4F0E0808184608C9350C3AEE4B0E0D3
:10223000EEE4F0E0808181608C93AEE4B0E0EEE407
:10224000F0E080818D7F8C93AEE4B0E0EEE4F0E0CE
:10225000808184608C933AC3AEE4B0E0EEE4F0E0B9
:1022600080818E7F8C93AEE4B0E0EEE4F0E080817C
:1022700082608C93AEE4B0E0EEE4F0E080818460B4
:102280008C9324C3AEE4B0E0EEE4F0E080818160A2
:102290008C93AEE4B0E0EEE4F0E0808182608C9359
:1022A000AEE4B0E0EEE4F0E0808184608C930EC395
:1022B00019820CC3EA81FB8181818823E9F4AFE4B0
:1022C000B0E0EFE4F0E080818E7F8C93AFE4B0E08B
:1022D000EFE4F0E080818D7F8C93AEE4B0E0EEE43B
:1022E000F0E08081877F8C93AEE4B0E0EEE4F0E034
:1022F00080818F7E8C9323C0EA81FB818181813034
:10230000E9F4AFE4B0E0EFE4F0E080818E7F8C93FD
:10231000AFE4B0E0EFE4F0E080818D7F8C93AEE439
:10232000B0E0EEE4F0E0808188608C93AEE4B0E051
:10233000EEE4F0E080818F7E8C9301C01982EA8107
:10234000FB818281282F30E03B872A878A859B8505
:102350008130910521F12A853B85223031052CF40D
:102360008A859B85009761F047C02A853B8522308E
:10237000310521F18A859B858330910571F13CC03F
:10238000AFE4B0E0EFE4F0E080818F7E8C93AFE4C7
:10239000B0E0EFE4F0E080818F7D8C932EC0AFE45D
:1023A000B0E0EFE4F0E0808180618C93AFE4B0E0D6
:1023B000EFE4F0E080818F7D8C931FC0AFE4B0E04C
:1023C000EFE4F0E0808180618C93AFE4B0E0EFE473
:1023D000F0E0808180628C9310C0AFE4B0E0EFE465
:1023E000F0E080818F7E8C93AFE4B0E0EFE4F0E02A
:1023F000808180628C9301C01982EA81FB81838194
:10240000282F30E039872887888599858430910581
:1024100009F477C028853985253031058CF4888505
:1024200099858130910509F440C02885398522308D
:10243000310509F450C088859985009701F1CFC016
:10244000288539852730310509F487C08885998525
:10245000883091053CF4288539852630310509F40A
:1024600066C0BDC0888599858830910509F48BC008
:10247000288539852930310509F49BC0B0C0AEE408
:10248000B0E0EEE4F0E080818E7F8C93AEE4B0E0CB
:10249000EEE4F0E080818D7F8C93AEE4B0E0EEE47A
:1024A000F0E080818B7F8C9311C2AEE4B0E0EEE46B
:1024B000F0E0808181608C93AEE4B0E0EEE4F0E087
:1024C00080818D7F8C93AEE4B0E0EEE4F0E080811B
:1024D0008B7F8C93FBC1AEE4B0E0EEE4F0E0808152
:1024E0008E7F8C93AEE4B0E0EEE4F0E08081826019
:1024F0008C93AEE4B0E0EEE4F0E080818B7F8C93CF
:10250000E5C1AEE4B0E0EEE4F0E0808181608C9360
:10251000AEE4B0E0EEE4F0E0808182608C93AEE463
:10252000B0E0EEE4F0E080818B7F8C93CFC1AEE42D
:10253000B0E0EEE4F0E080818E7F8C93AEE4B0E01A
:10254000EEE4F0E080818D7F8C93AEE4B0E0EEE4C9
:10255000F0E0808184608C93B9C1AEE4B0E0EEE439
:10256000F0E0808181608C93AEE4B0E0EEE4F0E0D6
:1025700080818D7F8C93AEE4B0E0EEE4F0E080816A
:1025800084608C93A3C1AEE4B0E0EEE4F0E080811F
:102590008E7F8C93AEE4B0E0EEE4F0E08081826068
:1025A0008C93AEE4B0E0EEE4F0E0808184608C9344
:1025B0008DC1AEE4B0E0EEE4F0E0808181608C9308
:1025C000AEE4B0E0EEE4F0E0808182608C93AEE4B3
:1025D000B0E0EEE4F0E0808184608C9377C11982F2
:1025E00075C1EA81FB818181882379F4A5E4B0E09B
:1025F000E5E4F0E080818F7E8C93A5E4B0E0E5E433
:10260000F0E080818F7D8C9315C0EA81FB81818110
:10261000813079F4A5E4B0E0E5E4F0E080818F7EDC
:102620008C93A5E4B0E0E5E4F0E0808180628C93D7
:1026300001C01982EA81FB818281282F30E03F832B
:102640002E838E819F818130910521F12E813F81E2
:10265000223031052CF48E819F81009761F047C0B4
:102660002E813F812230310521F18E819F8183307F
:10267000910571F13CC0A5E4B0E0E5E4F0E08081B3
:102680008F7E8C93A5E4B0E0E5E4F0E080818F7D5F
:102690008C932EC0A5E4B0E0E5E4F0E08081806199
:1026A0008C93A5E4B0E0E5E4F0E080818F7D8C932D
:1026B0001FC0A5E4B0E0E5E4F0E0808180618C9388
:1026C000A5E4B0E0E5E4F0E0808180628C9310C086
:1026D000A5E4B0E0E5E4F0E080818F7E8C93A5E492
:1026E000B0E0E5E4F0E0808180628C9301C0198263
:1026F000EA81FB818381282F30E03D832C838C810C
:102700009D818330910509F470C02C813D81243076
:10271000310584F48C819D8181309105D1F12C812A
:102720003D81223031050CF04AC08C819D8100979B
:10273000D1F0C9C02C813D812530310509F481C01B
:102740008C819D81853091050CF465C02C813D8183
:102750002630310509F48BC08C819D81873091052D
:1027600009F49BC0B0C0A5E4B0E0E5E4F0E08081EE
:102770008E7F8C93A5E4B0E0E5E4F0E080818D7F6E
:102780008C93A5E4B0E0E5E4F0E080818B7F8C934E
:102790009DC0A5E4B0E0E5E4F0E0808181608C9329
:1027A000A5E4B0E0E5E4F0E080818D7F8C93A5E4C2
:1027B000B0E0E5E4F0E080818B7F8C9387C0A5E4F6
:1027C000B0E0E5E4F0E080818E7F8C93A5E4B0E09A
:1027D000E5E4F0E0808182608C93A5E4B0E0E5E47C
:1027E000F0E080818B7F8C9371C0A5E4B0E0E5E4DC
:1027F000F0E0808181608C93A5E4B0E0E5E4F0E056
:10280000808182608C93A5E4B0E0E5E4F0E0808113
:102810008B7F8C935BC0A5E4B0E0E5E4F0E08081C1
:102820008E7F8C93A5E4B0E0E5E4F0E080818D7FBD
:102830008C93A5E4B0E0E5E4F0E0808184608C93C3
:1028400045C0A5E4B0E0E5E4F0E0808181608C93D0
:10285000A5E4B0E0E5E4F0E080818D7F8C93A5E411
:10286000B0E0E5E4F0E0808184608C932FC0A5E4C3
:10287000B0E0E5E4F0E080818E7F8C93A5E4B0E0E9
:10288000E5E4F0E0808182608C93A5E4B0E0E5E4CB
:10289000F0E0808184608C9319C0A5E4B0E0E5E4A9
:1028A000F0E0808181608C93A5E4B0E0E5E4F0E0A5
:1028B000808182608C93A5E4B0E0E5E4F0E0808163
:1028C00084608C9303C0198201C019828981659646
:1028D0000FB6F894DEBF0FBECDBFCF91DF91089544
:1028E000DF93CF9300D000D000D0CDB7DEB78A837E
:1028F0007C836B8381E089838A81282F30E03E834B
:102900002D838D819E818130910511F12D813E8134
:10291000223031052CF48D819E81009761F032C008
:102920002D813E8122303105D1F08D819E81833011
:102930009105E1F027C08B819C818F3F910509F0C3
:1029400028F4ECE5F0E08B8180831CC019821AC06A
:10295000EAE4F0E08B819C819183808313C0E8E4FA
:10296000F0E08B819C81918380830CC08B819C8162
:102970008F3F910509F028F4E3E4F0E08B81808338
:1029800001C01982898126960FB6F894DEBF0FBE6A
:10299000CDBFCF91DF910895DF93CF9300D000D0CA
:1029A0000F92CDB7DEB78B831A8219828B81282FC5
:1029B00030E03D832C838C819D8181309105E9F04D
:1029C0002C813D81223031052CF48C819D81009732
:1029D00061F028C02C813D8122303105A9F08C8125
:1029E0009D8183309105B9F01DC0E2E5F0E0808162
:1029F000882F90E09A83898315C0ECE4F0E0808111
:102A000091819A8389830EC0ECE4F0E0808191810A
:102A10009A83898307C0E4E4F0E08081882F90E006
:102A20009A83898389819A810F900F900F900F90DC
:102A30000F90CF91DF910895DF93CF9300D000D016
:102A400000D0CDB7DEB78B836C831A8219828B815D
:102A5000282F30E03E832D834D815E81413051052A
:102A6000E1F18D819E818230910534F42D813E818A
:102A70002115310571F090C04D815E8142305105C4
:102A800009F44AC08D819E818330910509F462C0AA
:102A900083C08C81882361F4E2E5F0E08081282FF7
:102AA00030E08FEF90E0821B930B9A83898374C090
:102AB0008C81813009F070C0ECE5F0E08081282F36
:102AC00030E0E2E5F0E08081882F90E0A901481B2A
:102AD000590BCA019A8389835FC08C81882349F48A
:102AE000ECE4F0E080819181809590959A838983D0
:102AF00053C08C81813009F04FC0EAE4F0E02081BE
:102B00003181ECE4F0E080819181A901481B590BEF
:102B1000CA019A83898340C08C81882349F4ECE4FC
:102B2000F0E080819181809590959A83898334C06B
:102B30008C81813089F5E8E4F0E020813181ECE49A
:102B4000F0E080819181A901481B590BCA019A8349
:102B5000898322C08C81882361F4E4E4F0E08081E1
:102B6000282F30E08FEF90E0821B930B9A838983AC
:102B700013C08C81813081F4E3E4F0E08081282F60
:102B800030E0E4E4F0E08081882F90E0A901481B68
:102B9000590BCA019A83898389819A8126960FB637
:102BA000F894DEBF0FBECDBFCF91DF910895DF93C4
:102BB000CF9300D000D000D0CDB7DEB789836A8331
:102BC0005C834B838981282F30E03E832D838D8168
:102BD0009E8181309105D1F12D813E8122303105D8
:102BE0002CF48D819E81009771F096C02D813E81DD
:102BF0002230310509F44DC08D819E8183309105CD
:102C000009F469C089C08A81882371F48B819C8111
:102C100090937B0080937A00A9E5B0E0E9E5F0E0CD
:102C2000808181608C9378C08A81813009F074C082
:102C30008B819C819093710080937000A9E5B0E036
:102C4000E9E5F0E0808182608C9366C08A81882308
:102C500071F48B819C8190937D0080937C00A9E529
:102C6000B0E0E9E5F0E0808184608C9355C08A8112
:102C7000813009F051C08B819C81909379008093C1
:102C80007800A9E5B0E0E9E5F0E0808180618C930F
:102C900043C08A81882371F48B819C8190937D004D
:102CA00080937C00A9E5B0E0E9E5F0E080818460F4
:102CB0008C9332C08A81813079F58B819C8190938D
:102CC000750080937400A9E5B0E0E9E5F0E080814B
:102CD00088608C9321C08A81882371F48B819C81C8
:102CE0009093770080937600A9E5B0E0E9E5F0E005
:102CF000808180648C9310C08A81813069F48B81DB
:102D00009C819093730080937200A9E5B0E0E9E59F
:102D1000F0E0808180688C9326960FB6F894DEBF31
:102D20000FBECDBFCF91DF910895DF93CF9300D039
:102D300000D0CDB7DEB789836A838981282F30E040
:102D40003C832B838B819C818130910569F12B81A0
:102D50003C81223031052CF48B819C81009769F0F5
:102D600064C02B813C8122303105A1F18B819C8193
:102D70008330910509F444C058C08A81882341F406
:102D8000A9E5B0E0E9E5F0E080818E7F8C934DC04D
:102D90008A81813009F049C0A9E5B0E0E9E5F0E0B9
:102DA00080818D7F8C9341C08A81882341F4A9E57D
:102DB000B0E0E9E5F0E080818B7F8C9336C08A81BA
:102DC000813099F5A9E5B0E0E9E5F0E080818F7EFA
:102DD0008C932BC08A81882341F4A9E5B0E0E9E512
:102DE000F0E080818B7F8C9320C08A818130E9F470
:102DF000A9E5B0E0E9E5F0E08081877F8C9315C01C
:102E00008A81882341F4A9E5B0E0E9E5F0E080811A
:102E10008F7B8C930AC08A81813039F4A9E5B0E0B8
:102E2000E9E5F0E080818F778C930F900F900F9001
:102E30000F90CF91DF910895DF93CF93CDB7DEB799
:102E4000E0E2F0E082E08083E1E2F0E01082E6E59B
:102E5000F0E084E08083CF91DF910895DF93CF93FA
:102E6000CDB7DEB7E6E5F0E084EA8083E6E5F0E0A2
:102E700080818823DCF7CF91DF910895DF93CF9392
:102E8000CDB7DEB7E6E5F0E084E98083CF91DF914E
:102E90000895DF93CF930F92CDB7DEB78983E3E236
:102EA000F0E089818083E6E5F0E084E88083E6E570
:102EB000F0E080818823DCF70F90CF91DF910895B7
:102EC000DF93CF93CDB7DEB7E6E5F0E084EC808307
:102ED000E6E5F0E080818823DCF7E3E2F0E0808142
:102EE000CF91DF910895DF93CF93CDB7DEB7E6E5BD
:102EF000F0E084E88083E6E5F0E080818823DCF779
:102F0000E3E2F0E08081CF91DF910895DF93CF93EA
:102F1000CDB7DEB783E060E041E00E94A90683E020
:102F200061E041E00E94A90683E062E041E00E9486
:102F3000A90683E063E041E00E94A90683E064E023
:102F400042E00E94A90683E065E042E00E94A906F3
:102F500083E066E042E00E94A90683E067E042E089
:102F60000E94A906CF91DF910895DF93CF93CDB74B
:102F7000DEB728970FB6F894DEBF0FBECDBF8C83A7
:102F800081E08B838C81869586958A838C81837082
:102F9000898383E064E041E00E94B70983E065E053
:102FA00041E00E94B70983E066E041E00E94B70972
:102FB00083E067E041E00E94B7098981282F30E073
:102FC00038872F838F81988581309105D9F02F81A3
:102FD0003885223031052CF48F819885009761F077
:102FE00022C02F8138852230310591F08F8198855C
:102FF0008330910599F017C083E064E040E00E94BF
:10300000B70911C083E065E040E00E94B7090BC03A
:1030100083E066E040E00E94B70905C083E067E016
:1030200040E00E94B7098A81282F30E03E832D833B
:103030008D819E8181309105E9F02D813E81223084
:1030400031052CF48D819E81009761F02AC02D817D
:103050003E8122303105B1F08D819E818330910512
:10306000C9F01FC083E060E00E94660B8823C9F4AA
:103070001B8217C083E061E00E94660B882389F4FD
:103080001B820FC083E062E00E94660B882349F434
:103090001B8207C083E063E00E94660B882309F46B
:1030A0001B828B8128960FB6F894DEBF0FBECDBF72
:1030B000CF91DF910895DF93CF93CDB7DEB72897F7
:1030C0000FB6F894DEBF0FBECDBF8C8381E08B833B
:1030D0008C81869586958A838C818370898383E031
:1030E00064E041E00E94B70983E065E041E00E94AE
:1030F000B70983E066E041E00E94B70983E067E03A
:1031000041E00E94B7098981282F30E038872F835A
:103110008F81988581309105D9F02F8138852230B3
:1031200031052CF48F819885009761F022C02F81A2
:1031300038852230310591F08F8198858330910553
:1031400099F017C083E064E040E00E94B70911C025
:1031500083E065E040E00E94B7090BC083E066E0D1
:1031600040E00E94B70905C083E067E040E00E94AC
:10317000B7098A81282F30E03E832D838D819E817F
:103180008130910519F12D813E81223031052CF4D9
:103190008D819E81009761F042C02D813E81223059
:1031A000310511F18D819E818330910559F137C030
:1031B00083E060E00E94660B882389F51B8283E030
:1031C00060E00E94660B8823D1F329C083E061E0B0
:1031D0000E94660B882319F51B8283E061E00E9440
:1031E000660B8823D1F31BC083E062E00E94660B6C
:1031F0008823A9F41B8283E062E00E94660B882387
:10320000D1F30DC083E063E00E94660B882339F49C
:103210001B8283E063E00E94660B8823D1F38B81DD
:1032200028960FB6F894DEBF0FBECDBFCF91DF91C9
:103230000895DF93CF9300D0CDB7DEB71A8280E137
:1032400089831A820BC08A810E945B18882319F433
:103250008A81898306C08A818F5F8A838A818031CF
:1032600090F389810F900F90CF91DF910895DF93B4
:10327000CF93CDB7DEB72F970FB6F894DEBF0FBE52
:10328000CDBF1F860E94C51C80E090E0A0EFB1E496
:103290008B879C87AD87BE876B857C858D859E855A
:1032A00020E030E04AEF54E40E941F02DC01CB0131
:1032B0008F839887A987BA876F81788589859A8552
:1032C00020E030E040E85FE30E94790388232CF49B
:1032D00081E090E09E838D833FC06F8178858985F2
:1032E0009A8520E03FEF4FE757E40E941903181634
:1032F0004CF56B857C858D859E8520E030E040E235
:1033000051E40E941F02DC01CB01BC01CD010E94EF
:103310004900DC01CB019E838D830FC088EC90E0D7
:103320009C838B838B819C810197F1F79C838B839A
:103330008D819E8101979E838D838D819E810097D3
:1033400069F714C06F81788589859A850E94490044
:10335000DC01CB019E838D838D819E819A8389833D
:1033600089819A810197F1F79A83898380E38F8716
:103370008F8588608F878F8584608F878F850E9477
:10338000EF1A88E08F878F8584608F878F858160B3
:103390008F878F8582608F878F8582608F878F85EB
:1033A0000E94EF1A81E00E94EF1A2F960FB6F89450
:1033B000DEBF0FBECDBFCF91DF910895DF93CF93D6
:1033C000CDB7DEB781E00E94EF1ACF91DF9108956B
:1033D000DF93CF930F92CDB7DEB7898389810E94A7
:1033E000DA1B0F90CF91DF910895DF93CF9300D038
:1033F0000F92CDB7DEB79B838A8319820EC0898175
:10340000282F30E08A819B81FC01E20FF31F80812D
:103410000E94E81989818F5F89838981282F30E094
:103420008A819B81FC01E20FF31F8081882339F799
:103430000F900F900F90CF91DF910895DF93CF936E
:1034400000D00F92CDB7DEB78A836B838A81882F35
:1034500090E0002496958795079496958795079414
:10346000982F802D982F8B81890F8983898180687F
:10347000898389810E94EF1A0F900F900F90CF914E
:10348000DF910895DF93CF9300D000D000D0CDB767
:10349000DEB79E838D831C821B821A828D819E8162
:1034A00099235CF48D819E81909581959F4F9E8399
:1034B0008D838DE20E94E8192DC08D819E81009739
:1034C00049F580E30E94E81925C08B819C819C010D
:1034D000220F331FC901880F991F880F991FF90107
:1034E000E80FF91F8D819E812AE030E0B9010E942A
:1034F00000268E0F9F1F9C838B838D819E812AE0E7
:1035000030E0B9010E940026CB019E838D838A8121
:103510008F5F8A838D819E810097B9F61BC08B8156
:103520009C812AE030E0B9010E94EC2589838981E1
:10353000805D898389810E94E8198B819C812AE0C2
:1035400030E0B9010E94EC25CB019C838B838A81FA
:1035500081508A838B819C81009709F706C080E3A4
:103560000E94E8198A8181508A838A818823B9F769
:1035700026960FB6F894DEBF0FBECDBFCF91DF9178
:103580000895DF93CF9300D0CDB7DEB78A83198239
:1035900006C088E10E94EF1A89818F5F8983998133
:1035A0008A819817B0F30F900F90CF91DF91089513
:1035B000DF93CF9300D0CDB7DEB78A83198206C0E0
:1035C0008CE10E94EF1A89818F5F898399818A81BA
:1035D0009817B0F30F900F90CF91DF910895DF937C
:1035E000CF93CDB7DEB72F970FB6F894DEBF0FBEDF
:1035F000CDBF8F8782E060E040E00E94B70982E0A3
:1036000061E040E00E94B7098F85982F917083E0B8
:1036100060E0492F0E94B7098F858695982F917099
:1036200083E061E0492F0E94B7098F8586958695D2
:10363000982F917083E062E0492F0E94B7098F852F
:10364000869586958695982F917083E063E0492F43
:103650000E94B7098F8582958F70982F917083E0B3
:1036600064E0492F0E94B7098F85829586958770FF
:10367000982F917083E065E0492F0E94B7098F85EC
:103680008295869586958370982F917083E066E089
:10369000492F0E94B7098F85982F991F9927991F45
:1036A00083E067E0492F0E94B70982E062E041E0D1
:1036B0000E94B70980E090E0A0E0B0E48B879C878F
:1036C000AD87BE876B857C858D859E8520E030E04B
:1036D0004AEF54E40E941F02DC01CB018F839887DC
:1036E000A987BA876F81788589859A8520E030E03F
:1036F00040E85FE30E94790388232CF481E090E0A6
:103700009E838D833FC06F81788589859A8520E06F
:103710003FEF4FE757E40E94190318164CF56B85ED
:103720007C858D859E8520E030E040E251E40E945A
:103730001F02DC01CB01BC01CD010E944900DC016C
:10374000CB019E838D830FC088EC90E09C838B839C
:103750008B819C810197F1F79C838B838D819E8166
:1037600001979E838D838D819E81009769F714C098
:103770006F81788589859A850E944900DC01CB019B
:103780009E838D838D819E819A83898389819A818D
:103790000197F1F79A83898382E062E040E00E941A
:1037A000B7092F960FB6F894DEBF0FBECDBFCF91ED
:1037B000DF910895DF93CF93CDB7DEB72F970FB684
:1037C000F894DEBF0FBECDBF8F8782E060E041E09E
:1037D0000E94B70982E061E040E00E94B7098F854E
:1037E000982F917083E060E0492F0E94B7098F8580
:1037F0008695982F917083E061E0492F0E94B70968
:103800008F8586958695982F917083E062E0492F89
:103810000E94B7098F85869586958695982F917019
:1038200083E063E0492F0E94B7098F8582958F70EE
:10383000982F917083E064E0492F0E94B7098F852B
:10384000829586958770982F917083E065E0492F67
:103850000E94B7098F858295869586958370982FEB
:10386000917083E066E0492F0E94B7098F85982FF9
:10387000991F9927991F83E067E0492F0E94B70994
:1038800082E062E041E00E94B70980E090E0A0E0C1
:10389000B0E48B879C87AD87BE876B857C858D85E3
:1038A0009E8520E030E04AEF54E40E941F02DC01D4
:1038B000CB018F839887A987BA876F81788589859F
:1038C0009A8520E030E040E85FE30E947903882396
:1038D0002CF481E090E09E838D833FC06F817885DA
:1038E00089859A8520E03FEF4FE757E40E9419034E
:1038F00018164CF56B857C858D859E8520E030E023
:1039000040E251E40E941F02DC01CB01BC01CD0169
:103910000E944900DC01CB019E838D830FC088EC9F
:1039200090E09C838B838B819C810197F1F79C8332
:103930008B838D819E8101979E838D838D819E8156
:10394000009769F714C06F81788589859A850E94F0
:103950004900DC01CB019E838D838D819E819A83FA
:10396000898389819A810197F1F79A83898382E01B
:1039700062E040E00E94B7092F960FB6F894DEBFD0
:103980000FBECDBFCF91DF910895DF93CF93CDB719
:10399000DEB782E060E042E00E94A90682E061E0DA
:1039A00042E00E94A90682E062E042E00E94A9068D
:1039B00083E060E042E00E94A90683E061E042E02B
:1039C0000E94A90683E062E042E00E94A90683E02B
:1039D00063E042E00E94A90683E064E042E00E94C6
:1039E000A90683E065E042E00E94A90683E066E064
:1039F00042E00E94A90683E067E042E00E94A90637
:103A0000CF91DF910895DF93CF93CDB7DEB7ADE2CD
:103A1000B0E0EDE2F0E0808180628C93ADE2B0E056
:103A2000EDE2F0E080818F7E8C9381E065E040E004
:103A30000E94A90681E064E040E00E94A90681E0BE
:103A400067E040E00E94A90681E066E042E00E9453
:103A5000A906ADE2B0E0EDE2F0E0808180648C93F5
:103A6000CF91DF910895DF93CF930F92CDB7DEB75B
:103A70008983EFE2F0E089818083EEE2F0E08081EB
:103A80008823DCF70F90CF91DF910895DF93CF93D8
:103A9000CDB7DEB7EEE2F0E080818823DCF7EFE21D
:103AA000F0E08081CF91DF910895DF93CF93CDB780
:103AB000DEB783E060E042E00E94A90683E061E0B7
:103AC00042E00E94A90683E062E042E00E94A9066B
:103AD00083E063E042E00E94A90683E064E042E004
:103AE0000E94A90683E065E042E00E94A90683E007
:103AF00066E042E00E94A906CF91DF910895DF932E
:103B0000CF9300D00F92CDB7DEB789838981282F5C
:103B100030E03B832A838A819B818430910509F4BC
:103B2000D7C02A813B8125303105ECF48A819B8105
:103B30008130910509F460C02A813B812230310532
:103B40002CF48A819B81009799F19AC12A813B814B
:103B50002230310509F474C08A819B81833091053C
:103B600009F492C08DC12A813B812730310509F4C7
:103B70001BC18A819B81883091056CF42A813B812D
:103B80002530310509F4C8C08A819B8186309105B2
:103B900009F4E6C075C12A813B812830310509F45A
:103BA00027C18A819B818930910509F445C168C18B
:103BB00083E060E040E00E94B70983E061E040E01C
:103BC0000E94B70983E062E040E00E94B70983E009
:103BD00063E040E00E94B70983E064E040E00E94B7
:103BE000B70983E065E040E00E94B70983E066E042
:103BF00041E00E94B70967C183E060E041E00E94B4
:103C0000B70983E061E040E00E94B70983E062E029
:103C100040E00E94B70983E063E041E00E94B709F9
:103C200083E064E041E00E94B70983E065E041E0A1
:103C30000E94B70983E066E041E00E94B70943C1F2
:103C400083E060E040E00E94B70983E061E040E08B
:103C50000E94B70983E062E041E00E94B70983E077
:103C600063E040E00E94B70983E064E040E00E9426
:103C7000B70983E065E041E00E94B70983E066E0B0
:103C800040E00E94B7091FC183E060E040E00E946D
:103C9000B70983E061E040E00E94B70983E062E099
:103CA00040E00E94B70983E063E040E00E94B7096A
:103CB00083E064E041E00E94B70983E065E041E011
:103CC0000E94B70983E066E040E00E94B709FBC0AC
:103CD00083E060E041E00E94B70983E061E040E0FA
:103CE0000E94B70983E062E040E00E94B70983E0E8
:103CF00063E041E00E94B70983E064E041E00E9494
:103D0000B70983E065E040E00E94B70983E066E020
:103D100040E00E94B709D7C083E060E040E00E9425
:103D2000B70983E061E041E00E94B70983E062E007
:103D300040E00E94B70983E063E040E00E94B709D9
:103D400083E064E041E00E94B70983E065E040E081
:103D50000E94B70983E066E040E00E94B709B3C063
:103D600083E060E040E00E94B70983E061E041E069
:103D70000E94B70983E062E040E00E94B70983E057
:103D800063E040E00E94B70983E064E040E00E9405
:103D9000B70983E065E040E00E94B70983E066E090
:103DA00040E00E94B7098FC083E060E040E00E94DD
:103DB000B70983E061E040E00E94B70983E062E078
:103DC00040E00E94B70983E063E041E00E94B70948
:103DD00083E064E041E00E94B70983E065E041E0F0
:103DE0000E94B70983E066E041E00E94B7096BC01A
:103DF00083E060E040E00E94B70983E061E040E0DA
:103E00000E94B70983E062E040E00E94B70983E0C6
:103E100063E040E00E94B70983E064E040E00E9474
:103E2000B70983E065E040E00E94B70983E066E0FF
:103E300040E00E94B70947C083E060E040E00E9494
:103E4000B70983E061E040E00E94B70983E062E0E7
:103E500040E00E94B70983E063E040E00E94B709B8
:103E600083E064E041E00E94B70983E065E040E060
:103E70000E94B70983E066E040E00E94B70923C0D2
:103E800083E060E041E00E94B70983E061E041E047
:103E90000E94B70983E062E041E00E94B70983E035
:103EA00063E041E00E94B70983E064E041E00E94E2
:103EB000B70983E065E041E00E94B70983E066E06E
:103EC00041E00E94B7090F900F900F90CF91DF91C2
:103ED0000895DF93CF93CDB7DEB761970FB6F8940F
:103EE000DEBF0FBECDBF9B838A8381E08983EA81D9
:103EF000FB818081282F30E0398B288B8889998934
:103F00008130910509F46BC1288939892230310546
:103F100009F4DAC288899989009709F04AC4EA81CC
:103F2000FB818181882379F4A3E5B0E0E3E5F0E04B
:103F3000808180648C93A3E5B0E0E3E5F0E08081CC
:103F400088608C9315C0EA81FB818181813079F48E
:103F5000A3E5B0E0E3E5F0E0808180648C93A3E525
:103F6000B0E0E3E5F0E08081877F8C9301C01982A7
:103F7000EA81FB818281282F30E03F872E878E8562
:103F80009F8582309105C1F02E853F852330310514
:103F900011F18E859F85009769F5A3E5B0E0E3E513
:103FA000F0E080818F7E8C93A3E5B0E0E3E5F0E064
:103FB00080818F7D8C931FC0A3E5B0E0E3E5F0E046
:103FC000808180618C93A3E5B0E0E3E5F0E080813F
:103FD00080628C9310C0A3E5B0E0E3E5F0E080815F
:103FE0008F7E8C93A3E5B0E0E3E5F0E08081806212
:103FF0008C9301C01982EA81FB818381282F30E0F4
:104000003D872C878C859D858430910509F477C088
:104010002C853D85253031058CF48C859D8581303E
:10402000910509F440C02C853D852230310509F405
:1040300050C08C859D85009701F1CFC02C853D85B2
:104040002730310509F487C08C859D85883091051E
:104050003CF42C853D852630310509F466C0BDC091
:104060008C859D858830910509F48BC02C853D8514
:104070002930310509F49BC0B0C0A3E5B0E0E3E509
:10408000F0E080818E7F8C93A3E5B0E0E3E5F0E083
:1040900080818D7F8C93A3E5B0E0E3E5F0E0808143
:1040A0008B7F8C9387C3A3E5B0E0E3E5F0E08081EC
:1040B00081608C93A3E5B0E0E3E5F0E080818D7F43
:1040C0008C93A3E5B0E0E3E5F0E080818B7F8C93F7
:1040D00071C3A3E5B0E0E3E5F0E080818E7F8C93CF
:1040E000A3E5B0E0E3E5F0E0808182608C93A3E596
:1040F000B0E0E3E5F0E080818B7F8C935BC3A3E5C8
:10410000B0E0E3E5F0E0808181608C93A3E5B0E06E
:10411000E3E5F0E0808182608C93A3E5B0E0E3E525
:10412000F0E080818B7F8C9345C3A3E5B0E0E3E5AD
:10413000F0E080818E7F8C93A3E5B0E0E3E5F0E0D2
:1041400080818D7F8C93A3E5B0E0E3E5F0E0808192
:1041500084608C932FC3A3E5B0E0E3E5F0E08081B9
:1041600081608C93A3E5B0E0E3E5F0E080818D7F92
:104170008C93A3E5B0E0E3E5F0E0808184608C936C
:1041800019C3A3E5B0E0E3E5F0E080818E7F8C9376
:10419000A3E5B0E0E3E5F0E0808182608C93A3E5E5
:1041A000B0E0E3E5F0E0808184608C9303C3A3E595
:1041B000B0E0E3E5F0E0808181608C93A3E5B0E0BE
:1041C000E3E5F0E0808182608C93A3E5B0E0E3E575
:1041D000F0E0808184608C93EDC21982EBC2EA81A9
:1041E000FB8181818823E9F4AFE4B0E0EFE4F0E003
:1041F00080818E7F8C93AFE4B0E0EFE4F0E08081CB
:1042000082608C93AEE4B0E0EEE4F0E08081886000
:104210008C93AEE4B0E0EEE4F0E0808180618C93BA
:1042200001C01982EA81FB818281282F30E03B871F
:104230002A878A859B858130910521F12A853B85D6
:10424000223031052CF48A859B85009761F047C0A8
:104250002A853B852230310521F18A859B85833073
:10426000910571F13CC0AFE4B0E0EFE4F0E0808193
:104270008F7B8C93AFE4B0E0EFE4F0E080818F7748
:104280008C932EC0AFE4B0E0EFE4F0E08081806476
:104290008C93AFE4B0E0EFE4F0E080818F778C9313
:1042A0001FC0AFE4B0E0EFE4F0E0808180648C9365
:1042B000AFE4B0E0EFE4F0E0808180688C9310C060
:1042C000AFE4B0E0EFE4F0E080818F7B8C93AFE46B
:1042D000B0E0EFE4F0E0808180688C9301C0198247
:1042E000EA81FB818381282F30E039872887888500
:1042F00099858430910509F477C028853985253062
:1043000031058CF4888599858130910509F440C088
:10431000288539852230310509F450C08885998572
:10432000009701F1CFC0288539852730310509F480
:1043300087C088859985883091053CF42885398522
:104340002630310509F466C0BDC08885998588305E
:10435000910509F48BC0288539852930310509F488
:104360009BC0B0C0AEE4B0E0EEE4F0E080818E7FB0
:104370008C93AEE4B0E0EEE4F0E080818D7F8C932E
:10438000AEE4B0E0EEE4F0E080818B7F8C9312C26B
:10439000AEE4B0E0EEE4F0E0808181608C93AEE4C6
:1043A000B0E0EEE4F0E080818D7F8C93AEE4B0E08D
:1043B000EEE4F0E080818B7F8C93FCC1AEE4B0E052
:1043C000EEE4F0E080818E7F8C93AEE4B0E0EEE42A
:1043D000F0E0808182608C93AEE4B0E0EEE4F0E047
:1043E00080818B7F8C93E6C1AEE4B0E0EEE4F0E038
:1043F000808181608C93AEE4B0E0EEE4F0E08081F7
:1044000082608C93AEE4B0E0EEE4F0E080818B7FDC
:104410008C93D0C1AEE4B0E0EEE4F0E080818E7F1A
:104420008C93AEE4B0E0EEE4F0E080818D7F8C937D
:10443000AEE4B0E0EEE4F0E0808184608C93BAC139
:10444000AEE4B0E0EEE4F0E0808181608C93AEE415
:10445000B0E0EEE4F0E080818D7F8C93AEE4B0E0DC
:10446000EEE4F0E0808184608C93A4C1AEE4B0E01F
:10447000EEE4F0E080818E7F8C93AEE4B0E0EEE479
:10448000F0E0808182608C93AEE4B0E0EEE4F0E096
:10449000808184608C938EC1AEE4B0E0EEE4F0E005
:1044A000808181608C93AEE4B0E0EEE4F0E0808146
:1044B00082608C93AEE4B0E0EEE4F0E08081846052
:1044C0008C9378C1198276C1EA81FB81818188232E
:1044D000E9F4AFE4B0E0EFE4F0E080818E7F8C930C
:1044E000AFE4B0E0EFE4F0E0808182608C93AEE472
:1044F000B0E0EEE4F0E0808188608C93AEE4B0E060
:10450000EEE4F0E0808180618C9301C01982EA8141
:10451000FB818281282F30E03F832E838E819F8113
:104520008130910521F12E813F81223031052CF41B
:104530008E819F81009761F047C02E813F8122309C
:10454000310521F18E819F818330910571F13CC04D
:10455000AFE4B0E0EFE4F0E080818F7E8C93AFE4D5
:10456000B0E0EFE4F0E080818F7D8C932EC0AFE46B
:10457000B0E0EFE4F0E0808180618C93AFE4B0E0E4
:10458000EFE4F0E080818F7D8C931FC0AFE4B0E05A
:10459000EFE4F0E0808180618C93AFE4B0E0EFE481
:1045A000F0E0808180628C9310C0AFE4B0E0EFE473
:1045B000F0E080818F7E8C93AFE4B0E0EFE4F0E038
:1045C000808180628C9301C01982EA81FB818381A2
:1045D000282F30E03D832C838C819D818430910590
:1045E00009F477C02C813D81253031058CF48C8114
:1045F0009D818130910509F440C02C813D8122309C
:10460000310509F450C08C819D81009701F1CFC024
:104610002C813D812730310509F487C08C819D8133
:10462000883091053CF42C813D812630310509F418
:1046300066C0BDC08C819D818830910509F48BC016
:104640002C813D812930310509F49BC0B0C0AEE416
:10465000B0E0EEE4F0E080818E7F8C93AEE4B0E0D9
:10466000EEE4F0E080818D7F8C93AEE4B0E0EEE488
:10467000F0E080818B7F8C939DC0AEE4B0E0EEE4EF
:10468000F0E0808181608C93AEE4B0E0EEE4F0E095
:1046900080818D7F8C93AEE4B0E0EEE4F0E0808129
:1046A0008B7F8C9387C0AEE4B0E0EEE4F0E08081D5
:1046B0008E7F8C93AEE4B0E0EEE4F0E08081826027
:1046C0008C93AEE4B0E0EEE4F0E080818B7F8C93DD
:1046D00071C0AEE4B0E0EEE4F0E0808181608C93E4
:1046E000AEE4B0E0EEE4F0E0808182608C93AEE472
:1046F000B0E0EEE4F0E080818B7F8C935BC0AEE4B1
:10470000B0E0EEE4F0E080818E7F8C93AEE4B0E028
:10471000EEE4F0E080818D7F8C93AEE4B0E0EEE4D7
:10472000F0E0808184608C9345C0AEE4B0E0EEE4BC
:10473000F0E0808181608C93AEE4B0E0EEE4F0E0E4
:1047400080818D7F8C93AEE4B0E0EEE4F0E0808178
:1047500084608C932FC0AEE4B0E0EEE4F0E08081A2
:104760008E7F8C93AEE4B0E0EEE4F0E08081826076
:104770008C93AEE4B0E0EEE4F0E0808184608C9352
:1047800019C0AEE4B0E0EEE4F0E0808181608C938B
:10479000AEE4B0E0EEE4F0E0808182608C93AEE4C1
:1047A000B0E0EEE4F0E0808184608C9303C0198275
:1047B00001C01982898161960FB6F894DEBF0FBEE1
:1047C000CDBFCF91DF910895DF93CF9300D0CDB7C8
:1047D000DEB79A838983E6E4F0E089819A81918348
:1047E00080830F900F90CF91DF910895DF93CF9347
:1047F0000F92CDB7DEB789838981282F30E088EE0C
:1048000093E0AC01249FC001259F900D349F900D33
:10481000112424EB30E0B9010E940026CB0188511D
:104820009C4F0F90CF91DF910895DF93CF9300D0ED
:1048300000D000D0CDB7DEB78A837C836B8381E064
:1048400089838A81282F30E03E832D838D819E814C
:1048500081309105B1F02D813E8122303105C1F0CA
:104860008D819E810097D1F48B819C818F3F910532
:1048700009F028F4ECE5F0E08B8180830FC0198209
:104880000DC0EAE4F0E08B819C819183808306C0B7
:10489000E8E4F0E08B819C81918380838981269676
:1048A0000FB6F894DEBF0FBECDBFCF91DF91089554
:1048B000DF93CF93CDB7DEB728970FB6F894DEBF5E
:1048C0000FBECDBF9A838983A0E4B0E0E0E4F0E0BE
:1048D000808180688C93A0E4B0E0E0E4F0E0808127
:1048E0008F7B8C93E981FA818081282F30E0388793
:1048F0002F838F81988581309105C1F02F81388574
:104900002230310511F18F819885009761F5A0E47F
:10491000B0E0E0E4F0E080818F7E8C93A0E4B0E032
:10492000E0E4F0E080818F7D8C931DC0A0E4B0E0D6
:10493000E0E4F0E080818F7E8C93A0E4B0E0E0E4DE
:10494000F0E0808180628C930EC0A0E4B0E0E0E4EF
:10495000F0E0808180618C93A0E4B0E0E0E4F0E0DE
:10496000808180628C93E981FA818181282F30E0F7
:104970003E832D838D819E81009731F02D813E8174
:104980002130310549F00FC0A0E4B0E0E0E4F0E0F0
:104990008081877F8C9307C0A0E4B0E0E0E4F0E082
:1049A000808188608C93E981FA818281282F30E0B0
:1049B0003C832B838B819C818230910509F448C014
:1049C0002B813C812330310554F48B819C810097ED
:1049D00099F02B813C812130310521F17AC08B8106
:1049E0009C818330910509F449C02B813C8124309E
:1049F000310509F459C06DC0A0E4B0E0E0E4F0E096
:104A000080818D7F8C93A0E4B0E0E0E4F0E08081D1
:104A10008B7F8C93AAE2B0E0EAE2F0E080818B7FAA
:104A20008C9357C0A0E4B0E0E0E4F0E080818260C5
:104A30008C93A0E4B0E0E0E4F0E080818B7F8C9385
:104A4000AAE2B0E0EAE2F0E080818B7F8C9341C083
:104A5000A0E4B0E0E0E4F0E080818D7F8C93A0E4FE
:104A6000B0E0E0E4F0E0808184608C93AAE2B0E002
:104A7000EAE2F0E080818B7F8C932BC0A0E4B0E071
:104A8000E0E4F0E0808182608C93A0E4B0E0E0E4B8
:104A9000F0E0808184608C93AAE2B0E0EAE2F0E08A
:104AA00080818B7F8C9315C0A0E4B0E0E0E4F0E05F
:104AB000808182608C93A0E4B0E0E0E4F0E080814B
:104AC00084608C93AAE2B0E0EAE2F0E08081846046
:104AD0008C93E9E2F0E087E68083AAE2B0E0EAE2C4
:104AE000F0E0808180618C93AAE2B0E0EAE2F0E03D
:104AF000808188608C9328960FB6F894DEBF0FBE35
:104B0000CDBFCF91DF910895DF93CF930F92CDB7B3
:104B1000DEB78983ECE2F0E089818083EBE2F0E0AC
:104B200080818295869586958370882F90E081702C
:104B30009070009799F30F90CF91DF910895DF93D4
:104B4000CF93CDB7DEB7EBE2F0E080818823DCF7CE
:104B5000ECE2F0E08081CF91DF910895DF93CF9375
:104B6000CDB7DEB7A1E4B0E0E1E4F0E08081886099
:104B70008C93CF91DF910895DF93CF93CDB7DEB7BC
:104B8000E1E4F0E088E18083CF91DF910895DF9345
:104B9000CF93CDB7DEB7A1E4B0E0E1E4F0E08081EF
:104BA00081608C93A1E4B0E0E1E4F0E08081826078
:104BB0008C93A1E4B0E0E1E4F0E0808184608C9328
:104BC000CF91DF910895DF93CF93CDB7DEB780E02B
:104BD00090E0CF91DF910895AA1BBB1B51E107C064
:104BE000AA1FBB1FA617B70710F0A61BB70B881F7D
:104BF000991F5A95A9F780959095BC01CD0108950C
:104C000097FB092E07260AD077FD04D0E5DF06D0F2
:104C100000201AF4709561957F4F0895F6F79095EE
:104C200081959F4F08952F923F924F925F926F927E
:104C30007F928F929F92AF92BF92CF92DF92EF922C
:104C4000FF920F931F93CF93DF93CDB7DEB7CA1BAD
:104C5000DB0B0FB6F894DEBF0FBECDBF09942A88D8
:104C6000398848885F846E847D848C849B84AA8480
:104C7000B984C884DF80EE80FD800C811B81AA810D
:104C8000B981CE0FD11D0FB6F894DEBF0FBECDBFD8
:084C9000ED010895F894FFCF37
:084C9800000000000000000014
:00000001FF
