:100000000C942A000C9447000C9447000C94470071
:100010000C94200E0C94F30D0C9447000C94990D45
:100020000C94C60D0C946C0D0C94120D0C943F0D99
:100030000C9447000C9447000C9447000C94470024
:100040000C9447000C9447000C9447000C94470014
:100050000C94470011241FBECFE5D8E0DEBFCDBF12
:1000600011E0A0E6B0E0E8E4FBE702C005900D92E5
:10007000A23DB107D9F711E0A2EDB1E001C01D9298
:10008000A73FB107E1F70E94092F0C94A23D0C9401
:100090000000EF92FF920F931F937B018C0120E0F1
:1000A00030E040E05FE40E94490388238CF0C801FF
:1000B000B70120E030E040E05FE40E94C1010E940F
:1000C000A9039B01AC01205030404040504806C07D
:1000D000C801B7010E94A9039B01AC01B901CA0183
:1000E0001F910F91FF90EF900895A0E0B0E0EBE733
:1000F000F0E00C946B3DDC012B01FA019C919230F5
:1001000008F439C1EB018881823008F433C194309E
:1001100069F4843009F02FC111969C91119789815F
:10012000981709F428C1A8ECB1E025C1843009F47E
:1001300021C18230A9F4923009F01DC19A01AD01AC
:1001400088E0EA010990AE01E90109929E0181501F
:10015000C1F7E201898111969C918923818308C1AD
:10016000923009F407C112962D903C901397EB0141
:100170008A819B811496AD90BD90CD90DC901797AD
:10018000EC80FD800E811F819101281B390BB90184
:1001900037FF04C066277727621B730B6032710537
:1001A0000CF061C0121613066CF537014801062EDB
:1001B00004C096948794779467940A94D2F721E0C8
:1001C00030E040E050E004C0220F331F441F551FB1
:1001D0006A95D2F721503040404050402E213F21B7
:1001E00040235123211531054105510521F021E01E
:1001F00030E040E050E079018A01E628F72808293C
:1002000019293CC0232BD1F1260E371E350146019A
:10021000062E04C096948794779467940A94D2F734
:1002200021E030E040E050E004C0220F331F441FC3
:10023000551F6A95D2F721503040404050402A2146
:100240003B214C215D21211531054105510521F04E
:1002500021E030E040E050E059016A01A628B728CB
:10026000C828D9280BC0821593052CF01C01AA249C
:10027000BB24650103C0EE24FF24870111969C91E5
:10028000D20111968C91981709F445C0992339F041
:10029000A80197012A193B094C095D0906C0A6016E
:1002A00095012E193F09400B510B57FD08C01182D3
:1002B0003382228224833583468357831DC081E0A5
:1002C00081833382228288279927DC01821B930B4A
:1002D000A40BB50B84839583A683B7830DC0220F2F
:1002E000331F441F551F24833583468357838281E0
:1002F000938101979383828324813581468157813D
:10030000DA01C9010197A109B1098F5F9F4FAF4F72
:10031000BF4328F30BC0918333822282EA0CFB1C7B
:100320000C1D1D1DE482F5820683178383E0808304
:10033000248135814681578157FF1AC0C901AA27F8
:1003400097FDA095BA2F81709070A070B0705695EF
:10035000479537952795822B932BA42BB52B848318
:100360009583A683B7838281938101969383828349
:10037000DF0101C0D201CD01CDB7DEB7E2E10C94BF
:10038000873DA0E2B0E0E7ECF1E00C94773D6983B3
:100390007A838B839C832D833E834F835887E9E048
:1003A000EE2EF12CEC0EFD1ECE010196B7010E943F
:1003B000D2048E010F5E1F4FCE010596B8010E9438
:1003C000D2048A8991E089278A8BC701B801AE01DE
:1003D000475E5F4F0E9475000E94FD03A096E6E015
:1003E0000C94933DA0E2B0E0E8EFF1E00C94773D8F
:1003F00069837A838B839C832D833E834F835887C5
:10040000F9E0EF2EF12CEC0EFD1ECE010196B701A6
:100410000E94D2048E010F5E1F4FCE010596B801D7
:100420000E94D204C701B801AE01475E5F4F0E942F
:1004300075000E94FD03A096E6E00C94933DA0E2B7
:10044000B0E0E5E2F2E00C946B3D69837A838B8344
:100450009C832D833E834F835887CE010196BE0136
:10046000675F7F4F0E94D204CE010596BE016F5E8A
:100470007F4F0E94D2049985923088F0898982301A
:10048000C8F0943019F4823051F404C0843029F457
:10049000923081F488EC91E0C6C0923049F420E0BB
:1004A0009A858A89981321E02A87CE010996BBC0D4
:1004B000823049F420E09A858A89981321E02A8BBA
:1004C000CE014196B0C02D843E844F8458886D88FB
:1004D0007E888F88988CEE24FF248701AA24BB2471
:1004E000650140E050E060E070E0E0E0F0E0C10174
:1004F00081709070892BE9F0E60CF71C081D191D1E
:100500009A01AB012A0D3B1D4C1D5D1D80E090E062
:10051000A0E0B0E0E614F7040805190520F481E036
:1005200090E0A0E0B0E0BA01A901480F591F6A1F8E
:100530007B1FAA0CBB1CCC1CDD1C97FE08C081E0F5
:1005400090E0A0E0B0E0A82AB92ACA2ADB2A3196B6
:10055000E032F10549F0660C771C881C991C569412
:10056000479437942794C3CFFA85EA892B893C892D
:100570008B859C85280F391F2E5F3F4F17C0CA01FE
:1005800081709070892B61F016950795F794E79428
:1005900080E090E0A0E0B0E8E82AF92A0A2B1B2BC3
:1005A00076956795579547952F5F3F4F77FDE7CF36
:1005B0000CC0440F551F661F771F17FD4160EE0CDE
:1005C000FF1C001F111F21503040403090E05907A0
:1005D00090E0690790E4790760F32B8F3C8FDB0193
:1005E000CA018F779070A070B07080349105A1051A
:1005F000B10561F447FD0AC0E114F10401051105DC
:1006000029F0405C5F4F6F4F7F4F40781A8EFE1786
:1006100011F081E08A8F4D8F5E8F6F8F78A383E01A
:10062000898FCE0149960E94FD03A096E2E10C94C9
:10063000873DA8E1B0E0EFE1F3E00C94773D6983FA
:100640007A838B839C832D833E834F83588789E0F5
:10065000E82EF12CEC0EFD1ECE010196B7010E9492
:10066000D2048E010F5E1F4FCE010596B8010E9485
:10067000D2048985823040F08989823028F0C70110
:10068000B8010E944A0501C08FEF6896E6E00C941D
:10069000933DA8E1B0E0EFE4F3E00C94773D69838B
:1006A0007A838B839C832D833E834F83588789E095
:1006B000E82EF12CEC0EFD1ECE010196B7010E9432
:1006C000D2048E010F5E1F4FCE010596B8010E9425
:1006D000D2048985823040F08989823028F0C701B0
:1006E000B8010E944A0501C08FEF6896E6E00C94BD
:1006F000933DA8E1B0E0EFE7F3E00C94773D698328
:100700007A838B839C832D833E834F83588789E034
:10071000E82EF12CEC0EFD1ECE010196B7010E94D1
:10072000D2048E010F5E1F4FCE010596B8010E94C4
:10073000D2048985823040F08989823028F0C7014F
:10074000B8010E944A0501C081E06896E6E00C9479
:10075000933DACE0B0E0EFEAF3E00C947B3D6983BD
:100760007A838B839C83CE010196BE016B5F7F4FA2
:100770000E94D2048D81823061F1823050F1843048
:1007800021F48E81882351F12EC02F81388537FDC9
:1007900020C06E812F3131051CF06623F9F023C093
:1007A0008EE190E0821B930B29853A854B855C8511
:1007B00004C056954795379527958A95D2F76623B5
:1007C000B1F050954095309521953F4F4F4F5F4F79
:1007D0000EC020E030E040E050E009C02FEF3FEFD6
:1007E0004FEF5FE704C020E030E040E050E8B9019F
:1007F000CA012C96E2E00C94973DDF92EF92FF92B3
:100800000F931F93FC01E480F58006811781D1804E
:100810008081823048F480E090E0A0E1B0E0E82AF6
:10082000F92A0A2B1B2BA5C0843009F49FC0823003
:1008300021F4EE24FF24870105C0E114F104010531
:10084000110519F4E0E0F0E096C0628173819FEF3A
:10085000623879070CF05BC022E83FEF261B370BAC
:100860002A3131052CF020E030E040E050E02AC091
:10087000B801A701022E04C0769567955795479554
:100880000A94D2F781E090E0A0E0B0E004C0880FC5
:10089000991FAA1FBB1F2A95D2F70197A109B10979
:1008A0008E219F21A023B1230097A105B10521F03E
:1008B00081E090E0A0E0B0E09A01AB01282B392B59
:1008C0004A2B5B2BDA01C9018F779070A070B07052
:1008D00080349105A105B10539F427FF09C0205CDA
:1008E0003F4F4F4F5F4F04C0215C3F4F4F4F5F4F13
:1008F000E0E0F0E02030A0E03A07A0E04A07A0E402
:100900005A0710F0E1E0F0E079018A0127C0603871
:10091000710564F5FB01E158FF4FD801C7018F77DE
:100920009070A070B07080349105A105B10539F4C4
:10093000E7FE0DC080E490E0A0E0B0E004C08FE3EB
:1009400090E0A0E0B0E0E80EF91E0A1F1B1F17FFA1
:1009500005C016950795F794E794319687E01695AC
:100960000795F794E7948A95D1F705C0EE24FF2404
:100970008701EFEFF0E06E2F679566276795902F60
:100980009F77D794DD24D7948E2F8695492F462BB9
:10099000582F5D29B701CA011F910F91FF90EF9069
:1009A000DF900895FC01DB01408151812281622F9B
:1009B0006F7770E0221F2227221F9381892F880FD3
:1009C000822B282F30E0991F9927991F11969C930D
:1009D000119721153105A9F54115510561057105DD
:1009E00011F482E037C082E89FEF13969C938E93B8
:1009F00012979A01AB0167E0220F331F441F551F66
:100A00006A95D1F783E08C930DC0220F331F441FEA
:100A1000551F12968D919C911397019713969C9355
:100A20008E931297203080E0380780E0480780E4FA
:100A3000580758F314962D933D934D935C93179755
:100A400008952F3F310579F4411551056105710570
:100A500019F484E08C93089564FF03C081E08C93C3
:100A600012C01C9210C02F57304013963C932E9307
:100A7000129783E08C9387E0440F551F661F771F02
:100A80008A95D1F7706414964D935D936D937C9322
:100A9000179708951F93DC01FB019C91923008F495
:100AA00047C08081823008F443C0943051F41196DD
:100AB0001C91843099F58181682F70E0611B710968
:100AC0003FC0843021F0923031F48230B9F181811D
:100AD000882389F12DC011961C9111978230F1F075
:100AE00081811817D9F412962D913C911397828128
:100AF00093818217930794F028173907BCF0149656
:100B00008D919D910D90BC91A02D248135814681C0
:100B10005781281739074A075B0718F4112341F05A
:100B20000AC082179307A407B50740F4112319F0F0
:100B300061E070E005C06FEF7FEF02C060E070E041
:100B4000CB011F910895DF93CF93CDB7DEB72D97DB
:100B50000FB6F894DEBF0FBECDBF198618861F8270
:100B60001E821D821C821B821A820E945019898358
:100B700089818031D1F38981882339F41D821C82D7
:100B80001B821A820E94151AF0CF8D81882361F48E
:100B900081E08D8389810E94690689878985882FF4
:100BA00090E00E94791AE1CF8B81882389F581E05A
:100BB0008B838981282F30E03D872C878C859D850C
:100BC00087309105C9F02C853D852830310534F4F6
:100BD0008C859D858330910561F016C02C853D85FF
:100BE0002B30310561F08C859D858F30910551F05A
:100BF0000BC08BE28F8308C08DE28F8305C08AE231
:100C00008F8302C08FE28F838F810E941F1AADCF26
:100C10008C81882361F481E08C8389810E9469063C
:100C200088878885882F90E00E94791A9ECF8A81D4
:100C3000882309F09ACF8981823009F096CF81E02C
:100C40008A838F81282F30E03B872A878A859B857E
:100C50008B329105B1F02A853B852C32310534F475
:100C60008A859B858A329105B1F022C02A853B8511
:100C70002D32310559F08A859B858F32910591F08F
:100C800017C089859885890F8E8312C089859885BC
:100C9000891B8E830DC089859885899F802D11249D
:100CA0008E8306C089859885692F0E94383D8E8382
:100CB0008DE30E941F1A81E060E00E94551A80E6D1
:100CC00090E00E942C1A8E81882F90E00E94791A61
:100CD0004CCFDF93CF9300D000D0CDB7DEB78A835F
:100CE00019828A81282F30E03C832B838B819C8161
:100CF0008830910509F44BC02B813C8129303105A6
:100D0000DCF48B819C8184309105C1F12B813C8185
:100D10002530310534F48B819C818130910561F15E
:100D200047C02B813C812530310559F18B819C8155
:100D30008630910549F13CC02B813C812C30310536
:100D400079F18B819C818D3091055CF42B813C8104
:100D500029303105F9F08B819C818A309105E9F0C9
:100D600027C02B813C812D303105E9F08B819C819E
:100D70008E309105D9F01CC019821AC081E0898398
:100D800017C082E0898314C083E0898311C084E0A6
:100D900089830EC085E089830BC086E0898308C003
:100DA00087E0898305C088E0898302C089E0898360
:100DB00089810F900F900F900F90CF91DF91089540
:100DC000DF93CF93CDB7DEB729970FB6F894DEBF88
:100DD0000FBECDBF89836A834B838B81882309F043
:100DE000C2C08981282F30E0398728878885998576
:100DF0008130910509F43FC02885398522303105BD
:100E00002CF488859985009771F0E1C12885398592
:100E10002230310509F457C08885998583309105C2
:100E200009F479C0D4C1AAE3B0E0EAE3F0E080813C
:100E3000482F8A81282F30E081E090E002C0880F9F
:100E4000991F2A95E2F7809584238C93ABE3B0E059
:100E5000EBE3F0E08081482F8A81282F30E081E0A9
:100E600090E0022E02C0880F991F0A94E2F7809545
:100E700084238C93ACC1A7E3B0E0E7E3F0E080818A
:100E8000482F8A81282F30E081E090E002C0880F4F
:100E9000991F2A95E2F7809584238C93A8E3B0E00C
:100EA000E8E3F0E08081482F8A81282F30E081E05C
:100EB00090E0022E02C0880F991F0A94E2F78095F5
:100EC00084238C9384C1A4E3B0E0E4E3F0E0808168
:100ED000482F8A81282F30E081E090E002C0880FFF
:100EE000991F2A95E2F7809584238C93A5E3B0E0BF
:100EF000E5E3F0E08081482F8A81282F30E081E00F
:100F000090E0022E02C0880F991F0A94E2F78095A4
:100F100084238C935CC1A1E3B0E0E1E3F0E0808145
:100F2000482F8A81282F30E081E090E002C0880FAE
:100F3000991F2A95E2F7809584238C93A2E3B0E071
:100F4000E2E3F0E08081482F8A81282F30E081E0C1
:100F500090E0022E02C0880F991F0A94E2F7809554
:100F600084238C9334C18B81813009F0BEC0898188
:100F7000282F30E03F832E838E819F818130910521
:100F800009F43EC02E813F81223031052CF48E8140
:100F90009F81009771F01BC12E813F812230310566
:100FA00009F455C08E819F818330910509F476C084
:100FB0000EC1AAE3B0E0EAE3F0E08081482F8A8125
:100FC000282F30E081E090E002C0880F991F2A9519
:100FD000E2F7809584238C93ABE3B0E0EBE3F0E0A1
:100FE0008081482F8A81282F30E081E090E0022E16
:100FF00002C0880F991F0A94E2F7842B8C93E7C0F4
:10100000A7E3B0E0E7E3F0E08081482F8A81282F52
:1010100030E081E090E002C0880F991F2A95E2F746
:10102000809584238C93A8E3B0E0E8E3F0E080812E
:10103000482F8A81282F30E081E090E0022E02C004
:10104000880F991F0A94E2F7842B8C93C0C0A4E305
:10105000B0E0E4E3F0E08081482F8A81282F30E07F
:1010600081E090E002C0880F991F2A95E2F78095F1
:1010700084238C93A5E3B0E0E5E3F0E08081482F82
:101080008A81282F30E081E090E0022E02C0880F94
:10109000991F0A94E2F7842B8C9399C0A1E3B0E0E6
:1010A000E1E3F0E08081482F8A81282F30E081E061
:1010B00090E002C0880F991F2A95E2F7809584235B
:1010C0008C93A2E3B0E0E2E3F0E08081482F8A81D4
:1010D000282F30E081E090E0022E02C0880F991F97
:1010E0000A94E2F7842B8C9372C08B81823009F0D2
:1010F0006EC08981282F30E03D832C838C819D81B7
:101100008130910549F12C813D81223031052CF44B
:101110008C819D81009761F05AC02C813D812230E5
:10112000310571F18C819D8183309105E9F14FC0CA
:10113000AAE3B0E0EAE3F0E08081482F8A81282F1B
:1011400030E081E090E0022E02C0880F991F0A94DF
:10115000E2F7842B8C933BC0A7E3B0E0E7E3F0E039
:101160008081482F8A81282F30E081E090E0022E94
:1011700002C0880F991F0A94E2F7842B8C9327C032
:10118000A4E3B0E0E4E3F0E08081482F8A81282FD7
:1011900030E081E090E0022E02C0880F991F0A948F
:1011A000E2F7842B8C9313C0A1E3B0E0E1E3F0E01D
:1011B0008081482F8A81282F30E081E090E0022E44
:1011C00002C0880F991F0A94E2F7842B8C9329960A
:1011D0000FB6F894DEBF0FBECDBFCF91DF9108955B
:1011E000DF93CF93CDB7DEB72A970FB6F894DEBF63
:1011F0000FBECDBF89836A838A818823D9F589810F
:10120000282F30E03A87298789859A858130910592
:10121000E1F029853A85223031052CF489859A85BB
:10122000009761F0D2C029853A8522303105A1F0BE
:1012300089859A8583309105B1F0C7C0EAE3F0E073
:101240001082EBE3F0E01082C0C0E7E3F0E0108230
:10125000E8E3F0E01082B9C0E4E3F0E01082E5E3F7
:10126000F0E01082B2C0E1E3F0E01082E2E3F0E0EF
:101270001082ABC08A81813009F03FC08981282F5C
:1012800030E038872F838F81988581309105E9F090
:101290002F813885223031052CF48F819885009775
:1012A00061F093C02F81388522303105B1F08F81F4
:1012B000988583309105C9F088C0EAE3F0E0108298
:1012C000EBE3F0E08FEF808380C0E7E3F0E0108293
:1012D000E8E3F0E08FEF808378C0E4E3F0E0108291
:1012E000E5E3F0E08FEF808370C0E1E3F0E010828F
:1012F000E2E3F0E08FEF808368C08A81823099F565
:101300008981282F30E03E832D838D819E8181301D
:101310009105D1F02D813E81223031052CF48D8153
:101320009E81009761F051C02D813E8122303105B0
:1013300081F08D819E818330910581F046C0EAE382
:10134000F0E08FEF808341C0E7E3F0E08FEF808330
:101350003CC0E4E3F0E08FEF808337C0E1E3F0E0EE
:101360008FEF808332C08981282F30E03C832B832C
:101370008B819C8181309105D1F02B813C81223081
:1013800031052CF48B819C81009761F01EC02B816C
:101390003C812230310581F08B819C818330910525
:1013A00081F013C0EAE3F0E08A8180830EC0E7E3B6
:1013B000F0E08A81808309C0E4E3F0E08A818083E1
:1013C00004C0E1E3F0E08A8180832A960FB6F894A6
:1013D000DEBF0FBECDBFCF91DF910895DF93CF93D6
:1013E000CDB7DEB727970FB6F894DEBF0FBECDBFDF
:1013F00089836A834B838B81813009F06FC0898137
:10140000282F30E03F832E838E819F81813091058C
:1014100049F12E813F81223031052CF48E819F814C
:10142000009761F0D2C02E813F812230310571F1E9
:101430008E819F8183309105E9F1C7C0ABE3B0E0B5
:10144000EBE3F0E08081482F8A81282F30E081E0B3
:1014500090E0022E02C0880F991F0A94E2F7842BB5
:101460008C93B3C0A8E3B0E0E8E3F0E08081482FBC
:101470008A81282F30E081E090E0022E02C0880FA0
:10148000991F0A94E2F7842B8C939FC0A5E3B0E0E8
:10149000E5E3F0E08081482F8A81282F30E081E069
:1014A00090E0022E02C0880F991F0A94E2F7842B65
:1014B0008C938BC0A2E3B0E0E2E3F0E08081482FA0
:1014C0008A81282F30E081E090E0022E02C0880F50
:1014D000991F0A94E2F7842B8C9377C08B81882321
:1014E00009F073C08981282F30E03D832C838C81E3
:1014F0009D818130910559F12C813D81223031054A
:101500002CF48C819D81009769F05FC02C813D8116
:101510002230310589F18C819D818330910509F458
:1015200040C053C0ABE3B0E0EBE3F0E08081482F74
:101530008A81282F30E081E090E0022E02C0880FDF
:10154000991F0A94E2F7809584238C933EC0A8E308
:10155000B0E0E8E3F0E08081482F8A81282F30E076
:1015600081E090E0022E02C0880F991F0A94E2F7F2
:10157000809584238C9329C0A5E3B0E0E5E3F0E0F7
:101580008081482F8A81282F30E081E090E0022E70
:1015900002C0880F991F0A94E2F7809584238C93E8
:1015A00014C0A2E3B0E0E2E3F0E08081482F8A813A
:1015B000282F30E081E090E0022E02C0880F991FB2
:1015C0000A94E2F7809584238C9327960FB6F894BB
:1015D000DEBF0FBECDBFCF91DF910895DF93CF93D4
:1015E000CDB7DEB728970FB6F894DEBF0FBECDBFDC
:1015F00089836A838A81813099F58981282F30E037
:1016000038872F838F81988581309105D1F02F8184
:101610003885223031052CF48F819885009761F050
:1016200083C02F8138852230310581F08F819885E4
:101630008330910581F078C0EBE3F0E08FEF808399
:1016400073C0E8E3F0E08FEF80836EC0E5E3F0E085
:101650008FEF808369C0E2E3F0E08FEF808364C0A6
:101660008A81882379F58981282F30E03E832D8374
:101670008D819E8181309105C9F02D813E8122307E
:1016800031052CF48D819E81009761F04DC02D8134
:101690003E812230310571F08D819E81833091052C
:1016A00069F042C0EBE3F0E010823EC0E8E3F0E016
:1016B00010823AC0E5E3F0E0108236C0E2E3F0E0E9
:1016C000108232C08981282F30E03C832B838B81AC
:1016D0009C8181309105D1F02B813C8122303105F4
:1016E0002CF48B819C81009761F01EC02B813C8182
:1016F0002230310581F08B819C818330910581F00E
:1017000013C0EBE3F0E08A8180830EC0E8E3F0E0F1
:101710008A81808309C0E5E3F0E08A81808304C088
:10172000E2E3F0E08A81808328960FB6F894DEBF6A
:101730000FBECDBFCF91DF910895DF93CF9300D03F
:1017400000D00F92CDB7DEB78A836B8319828A816E
:10175000282F30E03D832C834C815D814130510541
:1017600041F18C819D818230910534F42C813D8141
:101770002115310561F052C04C815D814230510527
:1017800051F18C819D8183309105B9F147C0E9E326
:10179000F0E08081282F30E08B81882F90E0A90134
:1017A00002C0559547958A95E2F7CA0181708983F1
:1017B00035C0E6E3F0E08081282F30E08B81882F70
:1017C00090E0A90102C0559547958A95E2F7CA01B4
:1017D0008170898323C0E3E3F0E08081282F30E02B
:1017E0008B81882F90E0A90102C0559547958A9575
:1017F000E2F7CA018170898311C0E0E3F0E08081E3
:10180000282F30E08B81882F90E0A90102C05595E8
:1018100047958A95E2F7CA018170898389810F9083
:101820000F900F900F900F90CF91DF910895DF935D
:10183000CF9300D000D0CDB7DEB78A8319828A81DA
:10184000282F30E03C832B838B819C818130910554
:1018500049F12B813C81223031052CF48B819C8114
:10186000009761F05AC02B813C812230310571F123
:101870008B819C8183309105E9F14FC0E9E3F0E071
:1018800080818F3F19F481E0898347C0E9E3F0E06C
:101890008081882311F4198240C0E9E3F0E080815F
:1018A00089833BC0E6E3F0E080818F3F19F481E05B
:1018B000898333C0E6E3F0E08081882311F4198244
:1018C0002CC0E6E3F0E08081898327C0E3E3F0E009
:1018D00080818F3F19F481E089831FC0E3E3F0E04A
:1018E0008081882311F4198218C0E3E3F0E080813D
:1018F000898313C0E0E3F0E080818F3F19F481E039
:1019000089830BC0E0E3F0E08081882311F4198221
:1019100004C0E0E3F0E08081898389810F900F901B
:101920000F900F90CF91DF910895DF93CF93CDB7B4
:10193000DEB70E945317CF91DF910895DF93CF93C5
:1019400000D00F92CDB7DEB789836A834B830E94A4
:10195000651789810E9480178A810E9480178B8178
:101960000E9480170E9475170F900F900F90CF91D3
:10197000DF910895DF93CF9300D0CDB7DEB7898391
:101980006A830E94651789810E9480178A810E945C
:1019900080170E94651789818160898389810E94EF
:1019A00080170E94AA170F900F90CF91DF91089592
:1019B000DF93CF93CDB7DEB7ABE5B0E0EBE5F0E07A
:1019C000808180648C930E94F60CA5E5B0E0E5E58B
:1019D000F0E0808181608C93A5E5B0E0E5E5F0E082
:1019E00080818D7F8C93CF91DF910895DF93CF938A
:1019F000CDB7DEB7AFE5B0E0EFE5F0E0808180681D
:101A00008C93CF91DF910895DF93CF93CDB7DEB75D
:101A1000AFE5B0E0EFE5F0E080818F778C93CF9178
:101A2000DF9108951F920F920FB60F9211242F93FA
:101A30003F934F935F936F937F938F939F93AF9356
:101A4000BF93EF93FF93DF93CF93CDB7DEB7E091D2
:101A5000DF01F091E0010995CF91DF91FF91EF91C6
:101A6000BF91AF919F918F917F916F915F914F91B6
:101A70003F912F910F900FBE0F901F9018951F92BE
:101A80000F920FB60F9211242F933F934F935F93B2
:101A90006F937F938F939F93AF93BF93EF93FF9336
:101AA000DF93CF93CDB7DEB7E091E901F091EA0182
:101AB0000995CF91DF91FF91EF91BF91AF919F91E8
:101AC0008F917F916F915F914F913F912F910F90E7
:101AD0000FBE0F901F9018951F920F920FB60F9286
:101AE00011242F933F934F935F936F937F938F9323
:101AF0009F93AF93BF93EF93FF93DF93CF93CDB7B4
:101B0000DEB7E091EB01F091EC010995CF91DF9107
:101B1000FF91EF91BF91AF919F918F917F916F91C5
:101B20005F914F913F912F910F900FBE0F901F909B
:101B300018951F920F920FB60F9211242F933F9377
:101B40004F935F936F937F938F939F93AF93BF93C5
:101B5000EF93FF93DF93CF93CDB7DEB7E091E7012B
:101B6000F091E8010995CF91DF91FF91EF91BF913D
:101B7000AF919F918F917F916F915F914F913F9125
:101B80002F910F900FBE0F901F9018951F920F92DC
:101B90000FB60F9211242F933F934F935F936F9340
:101BA0007F938F939F93AF93BF93EF93FF93DF93B5
:101BB000CF93CDB7DEB7E091E301F091E401099551
:101BC000CF91DF91FF91EF91BF91AF919F918F9155
:101BD0007F916F915F914F913F912F910F900FBE29
:101BE0000F901F9018951F920F920FB60F9211240D
:101BF0002F933F934F935F936F937F938F939F9315
:101C0000AF93BF93EF93FF93DF93CF93CDB7DEB73F
:101C1000E091E501F091E6010995CF91DF91FF9107
:101C2000EF91BF91AF919F918F917F916F915F9154
:101C30004F913F912F910F900FBE0F901F901895CD
:101C40001F920F920FB60F9211242F933F934F9331
:101C50005F936F937F938F939F93AF93BF93EF9314
:101C6000FF93DF93CF93CDB7DEB7E091E101F09121
:101C7000E2010995CF91DF91FF91EF91BF91AF9173
:101C80009F918F917F916F915F914F913F912F9194
:101C90000F900FBE0F901F901895DF93CF93CDB785
:101CA000DEB765970FB6F894DEBF0FBECDBF9B833E
:101CB0008A8381E08983EA81FB818081282F30E05B
:101CC0003D8B2C8B8C899D898130910509F492C1C3
:101CD0002C893D89223031052CF48C899D8900970F
:101CE00071F02AC62C893D892230310509F419C3C7
:101CF0008C899D898330910509F4AAC41DC6EA81A7
:101D0000FB818181882379F4A3E5B0E0E3E5F0E08D
:101D100080818F7B8C93A3E5B0E0E3E5F0E08081E8
:101D2000877F8C9315C0EA81FB818181813079F4B2
:101D3000A3E5B0E0E3E5F0E080818F7B8C93A3E541
:101D4000B0E0E3E5F0E0808188608C9301C0198207
:101D5000EA81FB818281282F30E03B8B2A8B8A89A4
:101D60009B898130910521F12A893B8922303105F7
:101D70002CF48A899B89009761F047C02A893B89A6
:101D80002230310521F18A899B898330910571F1D7
:101D90003CC0A3E5B0E0E3E5F0E080818F7E8C936A
:101DA000A3E5B0E0E3E5F0E080818F7D8C932EC069
:101DB000A3E5B0E0E3E5F0E0808180618C93A3E5EA
:101DC000B0E0E3E5F0E080818F7D8C931FC0A3E558
:101DD000B0E0E3E5F0E0808180618C93A3E5B0E0C2
:101DE000E3E5F0E0808180628C9310C0A3E5B0E071
:101DF000E3E5F0E080818F7E8C93A3E5B0E0E3E53E
:101E0000F0E0808180628C9301C01982EA81FB81BD
:101E10008381282F30E0398B288B888999898430F9
:101E2000910509F477C028893989253031058CF46A
:101E3000888999898130910509F440C028893989B8
:101E40002230310509F450C088899989009701F141
:101E5000CFC0288939892730310509F487C088899E
:101E60009989883091053CF42889398926303105D3
:101E700009F466C0BDC0888999898830910509F444
:101E80008BC0288939892930310509F49BC0B0C03D
:101E9000A3E5B0E0E3E5F0E080818E7F8C93A3E5DD
:101EA000B0E0E3E5F0E080818D7F8C93A3E5B0E0C6
:101EB000E3E5F0E080818B7F8C933FC5A3E5B0E044
:101EC000E3E5F0E0808181608C93A3E5B0E0E3E599
:101ED000F0E080818D7F8C93A3E5B0E0E3E5F0E056
:101EE00080818B7F8C9329C5A3E5B0E0E3E5F0E02A
:101EF00080818E7F8C93A3E5B0E0E3E5F0E0808104
:101F000082608C93A3E5B0E0E3E5F0E080818B7F15
:101F10008C9313C5A3E5B0E0E3E5F0E08081816038
:101F20008C93A3E5B0E0E3E5F0E0808182608C93E0
:101F3000A3E5B0E0E3E5F0E080818B7F8C93FDC406
:101F4000A3E5B0E0E3E5F0E080818E7F8C93A3E52C
:101F5000B0E0E3E5F0E080818D7F8C93A3E5B0E015
:101F6000E3E5F0E0808184608C93E7C4A3E5B0E012
:101F7000E3E5F0E0808181608C93A3E5B0E0E3E5E8
:101F8000F0E080818D7F8C93A3E5B0E0E3E5F0E0A5
:101F9000808184608C93D1C4A3E5B0E0E3E5F0E0F8
:101FA00080818E7F8C93A3E5B0E0E3E5F0E0808153
:101FB00082608C93A3E5B0E0E3E5F0E0808184608B
:101FC0008C93BBC4A3E5B0E0E3E5F0E080818160E1
:101FD0008C93A3E5B0E0E3E5F0E0808182608C9330
:101FE000A3E5B0E0E3E5F0E0808184608C93A5C4D4
:101FF0001982A3C4EA81FB8181818823E9F4AFE4DB
:10200000B0E0EFE4F0E080818E7F8C93AFE4B0E04D
:10201000EFE4F0E080818D7F8C93AEE4B0E0EEE4FD
:10202000F0E08081877F8C93AEE4B0E0EEE4F0E0F6
:1020300080818F7E8C9323C0EA81FB8181818130F6
:10204000E9F4AFE4B0E0EFE4F0E080818E7F8C93C0
:10205000AFE4B0E0EFE4F0E080818D7F8C93AEE4FC
:10206000B0E0EEE4F0E0808188608C93AEE4B0E014
:10207000EEE4F0E080818F7E8C9301C01982EA81CA
:10208000FB818281282F30E03F872E878E859F85B8
:102090008130910521F12E853F85223031052CF4C8
:1020A0008E859F85009761F047C02E853F85223041
:1020B000310521F18E859F858330910571F13CC0FA
:1020C000AFE4B0E0EFE4F0E080818F7B8C93AFE48D
:1020D000B0E0EFE4F0E080818F778C932EC0AFE426
:1020E000B0E0EFE4F0E0808180648C93AFE4B0E096
:1020F000EFE4F0E080818F778C931FC0AFE4B0E015
:10210000EFE4F0E0808180648C93AFE4B0E0EFE432
:10211000F0E0808180688C9310C0AFE4B0E0EFE421
:10212000F0E080818F7B8C93AFE4B0E0EFE4F0E0EF
:10213000808180688C9301C01982EA81FB81838150
:10214000282F30E03D872C878C859D858430910534
:1021500009F477C02C853D85253031058CF48C85BC
:102160009D858130910509F440C02C853D85223044
:10217000310509F450C08C859D85009701F1CFC0D1
:102180002C853D852730310509F487C08C859D85D8
:10219000883091053CF42C853D852630310509F4C5
:1021A00066C0BDC08C859D858830910509F48BC0C3
:1021B0002C853D852930310509F49BC0B0C0AEE4C3
:1021C000B0E0EEE4F0E080818E7F8C93AEE4B0E08E
:1021D000EEE4F0E080818D7F8C93AEE4B0E0EEE43D
:1021E000F0E080818B7F8C93A8C3AEE4B0E0EEE496
:1021F000F0E0808181608C93AEE4B0E0EEE4F0E04A
:1022000080818D7F8C93AEE4B0E0EEE4F0E08081DD
:102210008B7F8C9392C3AEE4B0E0EEE4F0E080817B
:102220008E7F8C93AEE4B0E0EEE4F0E080818260DB
:102230008C93AEE4B0E0EEE4F0E080818B7F8C9391
:102240007CC3AEE4B0E0EEE4F0E0808181608C938A
:10225000AEE4B0E0EEE4F0E0808182608C93AEE426
:10226000B0E0EEE4F0E080818B7F8C9366C3AEE457
:10227000B0E0EEE4F0E080818E7F8C93AEE4B0E0DD
:10228000EEE4F0E080818D7F8C93AEE4B0E0EEE48C
:10229000F0E0808184608C9350C3AEE4B0E0EEE463
:1022A000F0E0808181608C93AEE4B0E0EEE4F0E099
:1022B00080818D7F8C93AEE4B0E0EEE4F0E080812D
:1022C00084608C933AC3AEE4B0E0EEE4F0E0808149
:1022D0008E7F8C93AEE4B0E0EEE4F0E0808182602B
:1022E0008C93AEE4B0E0EEE4F0E0808184608C9307
:1022F00024C3AEE4B0E0EEE4F0E0808181608C9332
:10230000AEE4B0E0EEE4F0E0808182608C93AEE475
:10231000B0E0EEE4F0E0808184608C930EC319821B
:102320000CC3EA81FB8181818823E9F4AFE4B0E04A
:10233000EFE4F0E080818E7F8C93AFE4B0E0EFE4D7
:10234000F0E080818D7F8C93AEE4B0E0EEE4F0E0CD
:102350008081877F8C93AEE4B0E0EEE4F0E0808192
:102360008F7E8C9323C0EA81FB8181818130E9F4E7
:10237000AFE4B0E0EFE4F0E080818E7F8C93AFE4D7
:10238000B0E0EFE4F0E080818D7F8C93AEE4B0E0CC
:10239000EEE4F0E0808188608C93AEE4B0E0EEE49F
:1023A000F0E080818F7E8C9301C01982EA81FB81ED
:1023B0008281282F30E03B872A878A859B85813060
:1023C000910521F12A853B85223031052CF48A853F
:1023D0009B85009761F047C02A853B8522303105F7
:1023E00021F18A859B858330910571F13CC0AFE472
:1023F000B0E0EFE4F0E080818F7E8C93AFE4B0E05A
:10240000EFE4F0E080818F7D8C932EC0AFE4B0E0EC
:10241000EFE4F0E0808180618C93AFE4B0E0EFE422
:10242000F0E080818F7D8C931FC0AFE4B0E0EFE4DB
:10243000F0E0808180618C93AFE4B0E0EFE4F0E005
:10244000808180628C9310C0AFE4B0E0EFE4F0E0F4
:1024500080818F7E8C93AFE4B0E0EFE4F0E0808188
:1024600080628C9301C01982EA81FB818381282FCD
:1024700030E039872887888599858430910509F46B
:1024800077C028853985253031058CF48885998574
:102490008130910509F440C0288539852230310505
:1024A00009F450C088859985009701F1CFC028852F
:1024B00039852730310509F487C0888599858830AA
:1024C00091053CF4288539852630310509F466C02C
:1024D000BDC0888599858830910509F48BC0288511
:1024E00039852930310509F49BC0B0C0AEE4B0E0B5
:1024F000EEE4F0E080818E7F8C93AEE4B0E0EEE419
:10250000F0E080818D7F8C93AEE4B0E0EEE4F0E00B
:1025100080818B7F8C9311C2AEE4B0E0EEE4F0E0FA
:10252000808181608C93AEE4B0E0EEE4F0E08081E5
:102530008D7F8C93AEE4B0E0EEE4F0E080818B7FA1
:102540008C93FBC1AEE4B0E0EEE4F0E080818E7FDE
:102550008C93AEE4B0E0EEE4F0E0808182608C9396
:10256000AEE4B0E0EEE4F0E080818B7F8C93E5C1D7
:10257000AEE4B0E0EEE4F0E0808181608C93AEE404
:10258000B0E0EEE4F0E0808182608C93AEE4B0E0F5
:10259000EEE4F0E080818B7F8C93CFC1AEE4B0E0BD
:1025A000EEE4F0E080818E7F8C93AEE4B0E0EEE468
:1025B000F0E080818D7F8C93AEE4B0E0EEE4F0E05B
:1025C000808184608C93B9C1AEE4B0E0EEE4F0E0C9
:1025D000808181608C93AEE4B0E0EEE4F0E0808135
:1025E0008D7F8C93AEE4B0E0EEE4F0E08081846017
:1025F0008C93A3C1AEE4B0E0EEE4F0E080818E7F86
:102600008C93AEE4B0E0EEE4F0E0808182608C93E5
:10261000AEE4B0E0EEE4F0E0808184608C938DC1A4
:10262000AEE4B0E0EEE4F0E0808181608C93AEE453
:10263000B0E0EEE4F0E0808182608C93AEE4B0E044
:10264000EEE4F0E0808184608C9377C1198275C1DB
:10265000EA81FB818181882379F4A5E4B0E0E5E497
:10266000F0E080818F7E8C93A5E4B0E0E5E4F0E0BB
:1026700080818F7D8C9315C0EA81FB8181818130BF
:1026800079F4A5E4B0E0E5E4F0E080818F7E8C93FE
:10269000A5E4B0E0E5E4F0E0808180628C9301C0C5
:1026A0001982EA81FB818281282F30E03F832E83CB
:1026B0008E819F818130910521F12E813F812230D1
:1026C00031052CF48E819F81009761F047C02E81E7
:1026D0003F812230310521F18E819F818330910528
:1026E00071F13CC0A5E4B0E0E5E4F0E080818F7ECC
:1026F0008C93A5E4B0E0E5E4F0E080818F7D8C93DD
:102700002EC0A5E4B0E0E5E4F0E0808180618C9328
:10271000A5E4B0E0E5E4F0E080818F7D8C931FC0FC
:10272000A5E4B0E0E5E4F0E0808180618C93A5E46D
:10273000B0E0E5E4F0E0808180628C9310C0A5E415
:10274000B0E0E5E4F0E080818F7E8C93A5E4B0E01A
:10275000E5E4F0E0808180628C9301C01982EA8117
:10276000FB818381282F30E03D832C838C819D81E8
:102770008330910509F470C02C813D8124303105EE
:1027800084F48C819D8181309105D1F12C813D8132
:10279000223031050CF04AC08C819D810097D1F028
:1027A000C9C02C813D812530310509F481C08C815F
:1027B0009D81853091050CF465C02C813D812630CA
:1027C000310509F48BC08C819D818730910509F416
:1027D0009BC0B0C0A5E4B0E0E5E4F0E080818E7F6E
:1027E0008C93A5E4B0E0E5E4F0E080818D7F8C93EC
:1027F000A5E4B0E0E5E4F0E080818B7F8C939DC0A0
:10280000A5E4B0E0E5E4F0E0808181608C93A5E48C
:10281000B0E0E5E4F0E080818D7F8C93A5E4B0E04A
:10282000E5E4F0E080818B7F8C9387C0A5E4B0E085
:10283000E5E4F0E080818E7F8C93A5E4B0E0E5E4F0
:10284000F0E0808182608C93A5E4B0E0E5E4F0E004
:1028500080818B7F8C9371C0A5E4B0E0E5E4F0E06B
:10286000808181608C93A5E4B0E0E5E4F0E08081B4
:1028700082608C93A5E4B0E0E5E4F0E080818B7F9A
:102880008C935BC0A5E4B0E0E5E4F0E080818E7F4E
:102890008C93A5E4B0E0E5E4F0E080818D7F8C933B
:1028A000A5E4B0E0E5E4F0E0808184608C9345C06D
:1028B000A5E4B0E0E5E4F0E0808181608C93A5E4DC
:1028C000B0E0E5E4F0E080818D7F8C93A5E4B0E09A
:1028D000E5E4F0E0808184608C932FC0A5E4B0E053
:1028E000E5E4F0E080818E7F8C93A5E4B0E0E5E440
:1028F000F0E0808182608C93A5E4B0E0E5E4F0E054
:10290000808184608C9319C0A5E4B0E0E5E4F0E038
:10291000808181608C93A5E4B0E0E5E4F0E0808103
:1029200082608C93A5E4B0E0E5E4F0E0808184600F
:102930008C9303C0198201C01982898165960FB6F4
:10294000F894DEBF0FBECDBFCF91DF910895DF9326
:10295000CF9300D000D000D0CDB7DEB78A837C8380
:102960006B8381E089838A81282F30E03E832D8329
:102970008D819E818130910511F12D813E81223022
:1029800031052CF48D819E81009761F032C02D813C
:102990003E8122303105D1F08D819E8183309105B9
:1029A000E1F027C08B819C818F3F910509F028F4CD
:1029B000ECE5F0E08B8180831CC019821AC0EAE448
:1029C000F0E08B819C819183808313C0E8E4F0E088
:1029D0008B819C81918380830CC08B819C818F3FF4
:1029E000910509F028F4E3E4F0E08B81808301C0D5
:1029F0001982898126960FB6F894DEBF0FBECDBF2F
:102A0000CF91DF910895DF93CF9300D000D00F9244
:102A1000CDB7DEB78B831A8219828B81282F30E0E5
:102A20003D832C838C819D8181309105E9F02C813F
:102A30003D81223031052CF48C819D81009761F01D
:102A400028C02C813D8122303105A9F08C819D81E7
:102A500083309105B9F01DC0E2E5F0E08081882F58
:102A600090E09A83898315C0ECE4F0E08081918145
:102A70009A8389830EC0ECE4F0E0808191819A838F
:102A8000898307C0E4E4F0E08081882F90E09A8396
:102A9000898389819A810F900F900F900F900F90EA
:102AA000CF91DF910895DF93CF9300D000D000D075
:102AB000CDB7DEB78B836C831A8219828B81282F66
:102AC00030E03E832D834D815E8141305105E1F13F
:102AD0008D819E818230910534F42D813E812115B6
:102AE000310571F090C04D815E814230510509F48D
:102AF0004AC08D819E818330910509F462C083C0F4
:102B00008C81882361F4E2E5F0E08081282F30E0B9
:102B10008FEF90E0821B930B9A83898374C08C8122
:102B2000813009F070C0ECE5F0E08081282F30E0C2
:102B3000E2E5F0E08081882F90E0A901481B590B65
:102B4000CA019A8389835FC08C81882349F4ECE4AD
:102B5000F0E080819181809590959A83898353C01C
:102B60008C81813009F04FC0EAE4F0E020813181AE
:102B7000ECE4F0E080819181A901481B590BCA0166
:102B80009A83898340C08C81882349F4ECE4F0E087
:102B900080819181809590959A83898334C08C81BE
:102BA000813089F5E8E4F0E020813181ECE4F0E067
:102BB00080819181A901481B590BCA019A8389839D
:102BC00022C08C81882361F4E4E4F0E08081282F26
:102BD00030E08FEF90E0821B930B9A83898313C0C0
:102BE0008C81813081F4E3E4F0E08081282F30E0B3
:102BF000E4E4F0E08081882F90E0A901481B590BA4
:102C0000CA019A83898389819A8126960FB6F8949E
:102C1000DEBF0FBECDBFCF91DF910895DF93CF937D
:102C200000D000D000D0CDB7DEB789836A835C8343
:102C30004B838981282F30E03E832D838D819E81B7
:102C400081309105D1F12D813E81223031052CF466
:102C50008D819E81009771F096C02D813E8122303A
:102C6000310509F44DC08D819E818330910509F4B1
:102C700069C089C08A81882371F48B819C8190937B
:102C8000EA018093E901A9E5B0E0E9E5F0E080819F
:102C900081608C9378C08A81813009F074C08B8107
:102CA0009C819093E0018093DF01A9E5B0E0E9E524
:102CB000F0E0808182608C9366C08A81882371F401
:102CC0008B819C819093EC018093EB01A9E5B0E0AE
:102CD000E9E5F0E0808184608C9355C08A81813081
:102CE00009F051C08B819C819093E8018093E701AA
:102CF000A9E5B0E0E9E5F0E0808180618C9343C014
:102D00008A81882371F48B819C819093EC0180935C
:102D1000EB01A9E5B0E0E9E5F0E0808184608C9307
:102D200032C08A81813079F58B819C819093E40156
:102D30008093E301A9E5B0E0E9E5F0E080818860F7
:102D40008C9321C08A81882371F48B819C8190931C
:102D5000E6018093E501A9E5B0E0E9E5F0E08081D6
:102D600080648C9310C08A81813069F48B819C814E
:102D70009093E2018093E101A9E5B0E0E9E5F0E09C
:102D8000808180688C9326960FB6F894DEBF0FBEC4
:102D9000CDBFCF91DF910895DF93CF9300D000D0C6
:102DA000CDB7DEB789836A838981282F30E03C83E1
:102DB0002B838B819C818130910569F12B813C8132
:102DC000223031052CF48B819C81009769F064C01E
:102DD0002B813C8122303105A1F18B819C81833094
:102DE000910509F444C058C08A81882341F4A9E5BB
:102DF000B0E0E9E5F0E080818E7F8C934DC08A8160
:102E0000813009F049C0A9E5B0E0E9E5F0E0808152
:102E10008D7F8C9341C08A81882341F4A9E5B0E07D
:102E2000E9E5F0E080818B7F8C9336C08A81813028
:102E300099F5A9E5B0E0E9E5F0E080818F7E8C931B
:102E40002BC08A81882341F4A9E5B0E0E9E5F0E0F0
:102E500080818B7F8C9320C08A818130E9F4A9E541
:102E6000B0E0E9E5F0E08081877F8C9315C08A812E
:102E7000882341F4A9E5B0E0E9E5F0E080818F7BAB
:102E80008C930AC08A81813039F4A9E5B0E0E9E584
:102E9000F0E080818F778C930F900F900F900F90C0
:102EA000CF91DF910895DF93CF93CDB7DEB7E0E206
:102EB000F0E082E08083E1E2F0E01082E6E5F0E01D
:102EC00084E08083CF91DF910895DF93CF93CDB7D6
:102ED000DEB7E6E5F0E084EA8083E6E5F0E08081B5
:102EE0008823DCF7CF91DF910895DF93CF93CDB79F
:102EF000DEB7E6E5F0E084E98083CF91DF910895C5
:102F0000DF93CF930F92CDB7DEB78983E3E2F0E092
:102F100089818083E6E5F0E084E88083E6E5F0E0FF
:102F200080818823DCF70F90CF91DF910895DF93A4
:102F3000CF93CDB7DEB7E6E5F0E084EC8083E6E53D
:102F4000F0E080818823DCF7E3E2F0E08081CF913C
:102F5000DF910895DF93CF93CDB7DEB7E6E5F0E0DC
:102F600084E88083E6E5F0E080818823DCF7E3E213
:102F7000F0E08081CF91DF910895DF93CF93CDB7BB
:102F8000DEB783E062E041E00E94E00682E067E0B5
:102F900041E00E94E00682E066E041E00E94E00637
:102FA00082E065E041E00E94E00683E064E042E008
:102FB0000E94E00683E063E042E00E94E00683E0D6
:102FC00066E042E00E94E00683E067E042E00E94A3
:102FD000E006CF91DF910895DF93CF93CDB7DEB7B1
:102FE00028970FB6F894DEBF0FBECDBF8C8381E06B
:102FF0008B838C81869586958A838C818370898367
:1030000083E064E041E00E94EE0983E063E041E098
:103010000E94EE0983E066E041E00E94EE0983E051
:1030200067E041E00E94EE098981282F30E038876F
:103030002F838F81988581309105D9F02F81388534
:10304000223031052CF48F819885009761F022C0E1
:103050002F8138852230310591F08F81988583301A
:10306000910599F017C083E064E040E00E94EE090A
:1030700011C083E063E040E00E94EE090BC083E0F2
:1030800066E040E00E94EE0905C083E067E040E0B2
:103090000E94EE098A81282F30E03E832D838D81A6
:1030A0009E8181309105E9F02D813E8122303105EC
:1030B0002CF48D819E81009761F02AC02D813E8184
:1030C00022303105B1F08D819E8183309105C9F0A8
:1030D0001FC083E062E00E949D0B8823C9F41B821D
:1030E00017C082E067E00E949D0B882389F41B8251
:1030F0000FC082E066E00E949D0B882349F41B828A
:1031000007C082E065E00E949D0B882309F41B82C2
:103110008B8128960FB6F894DEBF0FBECDBFCF913E
:10312000DF910895DF93CF93CDB7DEB728970FB621
:10313000F894DEBF0FBECDBF8C8381E08B838C8182
:10314000869586958A838C818370898383E064E089
:1031500041E00E94EE0983E063E041E00E94EE0955
:1031600083E066E041E00E94EE0983E067E041E031
:103170000E94EE098981282F30E038872F838F81C4
:10318000988581309105D9F02F813885223031051D
:103190002CF48F819885009761F022C02F813885AB
:1031A0002230310591F08F8198858330910599F017
:1031B00017C083E064E040E00E94EE0911C083E0A4
:1031C00063E040E00E94EE090BC083E066E040E06F
:1031D0000E94EE0905C083E067E040E00E94EE092E
:1031E0008A81282F30E03E832D838D819E8181301E
:1031F000910519F12D813E81223031052CF48D810C
:103200009E81009761F042C02D813E8122303105C0
:1032100011F18D819E818330910559F137C083E092
:1032200062E00E949D0B882389F51B8283E062E0A7
:103230000E949D0B8823D1F329C082E067E00E94A1
:103240009D0B882319F51B8282E067E00E949D0B8D
:103250008823D1F31BC082E066E00E949D0B882387
:10326000A9F41B8282E066E00E949D0B8823D1F3C3
:103270000DC082E065E00E949D0B882339F41B821B
:1032800082E065E00E949D0B8823D1F38B81289614
:103290000FB6F894DEBF0FBECDBFCF91DF9108957A
:1032A000DF93CF9300D0CDB7DEB71A8280E1898358
:1032B0001A820BC08A810E949218882319F48A818D
:1032C000898306C08A818F5F8A838A81803190F3E7
:1032D00089810F900F90CF91DF910895DF93CF9365
:1032E000CDB7DEB72F970FB6F894DEBF0FBECDBFB8
:1032F0001F860E94FC1C80E090E0A0EFB1E48B8769
:103300009C87AD87BE876B857C858D859E8520E0FB
:1033100030E04AEF54E40E941F02DC01CB018F83AE
:103320009887A987BA876F81788589859A8520E0F3
:1033300030E040E85FE30E94790388232CF481E0C9
:1033400090E09E838D833FC06F81788589859A85C3
:1033500020E03FEF4FE757E40E94190318164CF5A1
:103360006B857C858D859E8520E030E040E251E4D0
:103370000E941F02DC01CB01BC01CD010E9449006B
:10338000DC01CB019E838D830FC088EC90E09C8391
:103390008B838B819C810197F1F79C838B838D813B
:1033A0009E8101979E838D838D819E81009769F711
:1033B00014C06F81788589859A850E944900DC0157
:1033C000CB019E838D838D819E819A8389838981A0
:1033D0009A810197F1F79A83898380E38F878F859C
:1033E00088608F878F8584608F878F850E94261BDA
:1033F00088E08F878F8584608F878F8581608F8736
:103400008F8582608F878F8582608F878F850E94EE
:10341000261B81E00E94261B2F960FB6F894DEBF74
:103420000FBECDBFCF91DF910895DF93CF93CDB77E
:10343000DEB781E00E94261BCF91DF910895DF93D4
:10344000CF930F92CDB7DEB7898389810E94111C7B
:103450000F90CF91DF910895DF93CF9300D00F921B
:10346000CDB7DEB79B838A8319820EC08981282F4E
:1034700030E08A819B81FC01E20FF31F80810E9472
:103480001F1A89818F5F89838981282F30E08A8183
:103490009B81FC01E20FF31F8081882339F70F9095
:1034A0000F900F90CF91DF910895DF93CF9300D0CD
:1034B0000F92CDB7DEB78A836B838A81882F90E025
:1034C0000024969587950794969587950794982F4D
:1034D000802D982F8B81890F8983898180688983CA
:1034E00089810E94261B0F900F900F90CF91DF9142
:1034F0000895DF93CF9300D000D000D0CDB7DEB7D2
:103500009E838D831C821B821A828D819E819923CA
:103510005CF48D819E81909581959F4F9E838D83D4
:103520008DE20E941F1A2DC08D819E81009749F562
:1035300080E30E941F1A25C08B819C819C01220F71
:10354000331FC901880F991F880F991FF901E80FD0
:10355000F91F8D819E812AE030E0B9010E94583D1B
:103560008E0F9F1F9C838B838D819E812AE030E08C
:10357000B9010E94583DCB019E838D838A818F5F64
:103580008A838D819E810097B9F61BC08B819C81B7
:103590002AE030E0B9010E94443D89838981805D41
:1035A000898389810E941F1A8B819C812AE030E0E7
:1035B000B9010E94443DCB019C838B838A81815059
:1035C0008A838B819C81009709F706C080E30E9463
:1035D0001F1A8A8181508A838A818823B9F72696A7
:1035E0000FB6F894DEBF0FBECDBFCF91DF91089527
:1035F000DF93CF9300D0CDB7DEB78A83198206C0A0
:1036000088E10E94261B89818F5F898399818A8145
:103610009817B0F30F900F90CF91DF910895DF933B
:10362000CF9300D0CDB7DEB78A83198206C08CE174
:103630000E94261B89818F5F898399818A819817CF
:10364000B0F30F900F90CF91DF910895DF93CF9358
:10365000CDB7DEB72F970FB6F894DEBF0FBECDBF44
:103660008F8781E062E040E00E94EE0981E061E046
:1036700040E00E94EE098F85982F917080E067E00E
:10368000492F0E94EE098F858695982F917080E0D2
:1036900066E0492F0E94EE098F8586958695982FC2
:1036A000917080E065E0492F0E94EE098F85869534
:1036B00086958695982F917080E064E0492F0E944E
:1036C000EE098F8582958F70982F917080E063E06E
:1036D000492F0E94EE098F85829586958770982FD5
:1036E000917080E062E0492F0E94EE098F858295FB
:1036F000869586958370982F917080E061E0492FC0
:103700000E94EE098F85982F991F9927991F80E0B5
:1037100060E0492F0E94EE0981E060E041E00E94F4
:10372000EE0980E090E0A0E0B0E48B879C87AD8755
:10373000BE876B857C858D859E8520E030E04AEFD5
:1037400054E40E941F02DC01CB018F839887A98774
:10375000BA876F81788589859A8520E030E040E8D6
:103760005FE30E94790388232CF481E090E09E833C
:103770008D833FC06F81788589859A8520E03FEFF2
:103780004FE757E40E94190318164CF56B857C85AA
:103790008D859E8520E030E040E251E40E941F02CA
:1037A000DC01CB01BC01CD010E944900DC01CB0151
:1037B0009E838D830FC088EC90E09C838B838B81EC
:1037C0009C810197F1F79C838B838D819E8101976A
:1037D0009E838D838D819E81009769F714C06F81D0
:1037E000788589859A850E944900DC01CB019E83FA
:1037F0008D838D819E819A83898389819A810197A6
:10380000F1F79A83898381E060E040E00E94EE094D
:103810002F960FB6F894DEBF0FBECDBFCF91DF91CC
:103820000895DF93CF93CDB7DEB72F970FB6F894F7
:10383000DEBF0FBECDBF8F8781E062E041E00E9416
:10384000EE0981E061E040E00E94EE098F85982F4B
:10385000917080E067E0492F0E94EE098F85869580
:10386000982F917080E066E0492F0E94EE098F85C5
:1038700086958695982F917080E065E0492F0E948B
:10388000EE098F85869586958695982F917080E0B4
:1038900064E0492F0E94EE098F8582958F70982FE2
:1038A000917080E063E0492F0E94EE098F85829538
:1038B00086958770982F917080E062E0492F0E9472
:1038C000EE098F858295869586958370982F9170E5
:1038D00080E061E0492F0E94EE098F85982F991FA3
:1038E0009927991F80E060E0492F0E94EE0981E04E
:1038F00060E041E00E94EE0980E090E0A0E0B0E4EA
:103900008B879C87AD87BE876B857C858D859E85E3
:1039100020E030E04AEF54E40E941F02DC01CB01BA
:103920008F839887A987BA876F81788589859A85DB
:1039300020E030E040E85FE30E94790388232CF424
:1039400081E090E09E838D833FC06F81788589857B
:103950009A8520E03FEF4FE757E40E9419031816BD
:103960004CF56B857C858D859E8520E030E040E2BE
:1039700051E40E941F02DC01CB01BC01CD010E9479
:103980004900DC01CB019E838D830FC088EC90E061
:103990009C838B838B819C810197F1F79C838B8324
:1039A0008D819E8101979E838D838D819E8100975D
:1039B00069F714C06F81788589859A850E944900CE
:1039C000DC01CB019E838D838D819E819A838983C7
:1039D00089819A810197F1F79A83898381E060E078
:1039E00040E00E94EE092F960FB6F894DEBF0FBE9E
:1039F000CDBFCF91DF910895DF93CF93CDB7DEB7E1
:103A000081E062E042E00E94E00681E061E042E0A5
:103A10000E94E00681E060E042E00E94E00680E073
:103A200067E042E00E94E00680E066E042E00E943B
:103A3000E00680E065E042E00E94E00680E064E0AD
:103A400042E00E94E00680E063E042E00E94E0067F
:103A500080E062E042E00E94E00680E061E042E057
:103A60000E94E00680E060E042E00E94E006CF9124
:103A7000DF910895DF93CF93CDB7DEB761970FB68F
:103A8000F894DEBF0FBECDBF9B838A8381E089831C
:103A9000EA81FB818081282F30E0398B288B88894F
:103AA00099898130910509F46BC1288939892230BF
:103AB000310509F4DAC288899989009709F04AC466
:103AC000EA81FB818181882379F4A3E5B0E0E3E515
:103AD000F0E0808180648C93A3E5B0E0E3E5F0E062
:103AE000808188608C9315C0EA81FB81818181305F
:103AF00079F4A3E5B0E0E3E5F0E0808180648C93A5
:103B0000A3E5B0E0E3E5F0E08081877F8C9301C01E
:103B10001982EA81FB818281282F30E03F872E873E
:103B20008E859F8582309105C1F02E853F8523309B
:103B3000310511F18E859F85009769F5A3E5B0E009
:103B4000E3E5F0E080818F7E8C93A3E5B0E0E3E5D0
:103B5000F0E080818F7D8C931FC0A3E5B0E0E3E5AA
:103B6000F0E0808180618C93A3E5B0E0E3E5F0E0D4
:103B7000808180628C9310C0A3E5B0E0E3E5F0E0C3
:103B800080818F7E8C93A3E5B0E0E3E5F0E0808157
:103B900080628C9301C01982EA81FB818381282F86
:103BA00030E03D872C878C859D858430910509F414
:103BB00077C02C853D85253031058CF48C859D851D
:103BC0008130910509F440C02C853D8522303105B6
:103BD00009F450C08C859D85009701F1CFC02C85DC
:103BE0003D852730310509F487C08C859D85883057
:103BF00091053CF42C853D852630310509F466C0DD
:103C0000BDC08C859D858830910509F48BC02C85BD
:103C10003D852930310509F49BC0B0C0A3E5B0E073
:103C2000E3E5F0E080818E7F8C93A3E5B0E0E3E5EF
:103C3000F0E080818D7F8C93A3E5B0E0E3E5F0E0D8
:103C400080818B7F8C9387C3A3E5B0E0E3E5F0E050
:103C5000808181608C93A3E5B0E0E3E5F0E08081B2
:103C60008D7F8C93A3E5B0E0E3E5F0E080818B7F6E
:103C70008C9371C3A3E5B0E0E3E5F0E080818E7F33
:103C80008C93A3E5B0E0E3E5F0E0808182608C9363
:103C9000A3E5B0E0E3E5F0E080818B7F8C935BC32C
:103CA000A3E5B0E0E3E5F0E0808181608C93A3E5DB
:103CB000B0E0E3E5F0E0808182608C93A3E5B0E0C2
:103CC000E3E5F0E080818B7F8C9345C3A3E5B0E012
:103CD000E3E5F0E080818E7F8C93A3E5B0E0E3E53F
:103CE000F0E080818D7F8C93A3E5B0E0E3E5F0E028
:103CF000808184608C932FC3A3E5B0E0E3E5F0E01E
:103D0000808181608C93A3E5B0E0E3E5F0E0808101
:103D10008D7F8C93A3E5B0E0E3E5F0E080818460E3
:103D20008C9319C3A3E5B0E0E3E5F0E080818E7FDA
:103D30008C93A3E5B0E0E3E5F0E0808182608C93B2
:103D4000A3E5B0E0E3E5F0E0808184608C9303C3F9
:103D5000A3E5B0E0E3E5F0E0808181608C93A3E52A
:103D6000B0E0E3E5F0E0808182608C93A3E5B0E011
:103D7000E3E5F0E0808184608C93EDC21982EBC2B0
:103D8000EA81FB8181818823E9F4AFE4B0E0EFE4CC
:103D9000F0E080818E7F8C93AFE4B0E0EFE4F0E060
:103DA000808182608C93AEE4B0E0EEE4F0E080814C
:103DB00088608C93AEE4B0E0EEE4F0E08081806156
:103DC0008C9301C01982EA81FB818281282F30E027
:103DD0003B872A878A859B858130910521F12A8539
:103DE0003B85223031052CF48A859B85009761F054
:103DF00047C02A853B852230310521F18A859B8584
:103E00008330910571F13CC0AFE4B0E0EFE4F0E045
:103E100080818F7B8C93AFE4B0E0EFE4F0E08081B1
:103E20008F778C932EC0AFE4B0E0EFE4F0E08081B8
:103E300080648C93AFE4B0E0EFE4F0E080818F77B2
:103E40008C931FC0AFE4B0E0EFE4F0E080818064C9
:103E50008C93AFE4B0E0EFE4F0E0808180688C9375
:103E600010C0AFE4B0E0EFE4F0E080818F7B8C9392
:103E7000AFE4B0E0EFE4F0E0808180688C9301C0B3
:103E80001982EA81FB818381282F30E039872887D6
:103E9000888599858430910509F477C0288539850E
:103EA000253031058CF4888599858130910509F498
:103EB00040C0288539852230310509F450C08885F5
:103EC0009985009701F1CFC02885398527303105C4
:103ED00009F487C088859985883091053CF4288548
:103EE00039852630310509F466C0BDC088859985BD
:103EF0008830910509F48BC0288539852930310532
:103F000009F49BC0B0C0AEE4B0E0EEE4F0E0808124
:103F10008E7F8C93AEE4B0E0EEE4F0E080818D7FA4
:103F20008C93AEE4B0E0EEE4F0E080818B7F8C9384
:103F300012C2AEE4B0E0EEE4F0E0808181608C93E8
:103F4000AEE4B0E0EEE4F0E080818D7F8C93AEE4EF
:103F5000B0E0EEE4F0E080818B7F8C93FCC1AEE4B6
:103F6000B0E0EEE4F0E080818E7F8C93AEE4B0E0D0
:103F7000EEE4F0E0808182608C93AEE4B0E0EEE4A9
:103F8000F0E080818B7F8C93E6C1AEE4B0E0EEE49C
:103F9000F0E0808181608C93AEE4B0E0EEE4F0E08C
:103FA000808182608C93AEE4B0E0EEE4F0E080814A
:103FB0008B7F8C93D0C1AEE4B0E0EEE4F0E0808182
:103FC0008E7F8C93AEE4B0E0EEE4F0E080818D7FF4
:103FD0008C93AEE4B0E0EEE4F0E0808184608C93FA
:103FE000BAC1AEE4B0E0EEE4F0E0808181608C9391
:103FF000AEE4B0E0EEE4F0E080818D7F8C93AEE43F
:10400000B0E0EEE4F0E0808184608C93A4C1AEE483
:10401000B0E0EEE4F0E080818E7F8C93AEE4B0E01F
:10402000EEE4F0E0808182608C93AEE4B0E0EEE4F8
:10403000F0E0808184608C938EC1AEE4B0E0EEE469
:10404000F0E0808181608C93AEE4B0E0EEE4F0E0DB
:10405000808182608C93AEE4B0E0EEE4F0E0808199
:1040600084608C9378C1198276C1EA81FB81818159
:104070008823E9F4AFE4B0E0EFE4F0E080818E7FE4
:104080008C93AFE4B0E0EFE4F0E0808182608C9349
:10409000AEE4B0E0EEE4F0E0808188608C93AEE4C2
:1040A000B0E0EEE4F0E0808180618C9301C0198281
:1040B000EA81FB818281282F30E03F832E838E812D
:1040C0009F818130910521F12E813F812230310580
:1040D0002CF48E819F81009761F047C02E813F8133
:1040E0002230310521F18E819F818330910571F15C
:1040F0003CC0AFE4B0E0EFE4F0E080818F7E8C93D1
:10410000AFE4B0E0EFE4F0E080818F7D8C932EC0CF
:10411000AFE4B0E0EFE4F0E0808180618C93AFE445
:10412000B0E0EFE4F0E080818F7D8C931FC0AFE4BE
:10413000B0E0EFE4F0E0808180618C93AFE4B0E028
:10414000EFE4F0E0808180628C9310C0AFE4B0E0D7
:10415000EFE4F0E080818F7E8C93AFE4B0E0EFE499
:10416000F0E0808180628C9301C01982EA81FB813A
:104170008381282F30E03D832C838C819D81843086
:10418000910509F477C02C813D81253031058CF4EF
:104190008C819D818130910509F440C02C813D8145
:1041A0002230310509F450C08C819D81009701F1C6
:1041B000CFC02C813D812730310509F487C08C8127
:1041C0009D81883091053CF42C813D81263031055C
:1041D00009F466C0BDC08C819D818830910509F4C9
:1041E0008BC02C813D812930310509F49BC0B0C0C2
:1041F000AEE4B0E0EEE4F0E080818E7F8C93AEE43C
:10420000B0E0EEE4F0E080818D7F8C93AEE4B0E02E
:10421000EEE4F0E080818B7F8C939DC0AEE4B0E053
:10422000EEE4F0E0808181608C93AEE4B0E0EEE4F7
:10423000F0E080818D7F8C93AEE4B0E0EEE4F0E0BE
:1042400080818B7F8C9387C0AEE4B0E0EEE4F0E039
:1042500080818E7F8C93AEE4B0E0EEE4F0E080816C
:1042600082608C93AEE4B0E0EEE4F0E080818B7F7E
:104270008C9371C0AEE4B0E0EEE4F0E08081816048
:104280008C93AEE4B0E0EEE4F0E0808182608C9349
:10429000AEE4B0E0EEE4F0E080818B7F8C935BC015
:1042A000AEE4B0E0EEE4F0E080818E7F8C93AEE48B
:1042B000B0E0EEE4F0E080818D7F8C93AEE4B0E07E
:1042C000EEE4F0E0808184608C9345C0AEE4B0E021
:1042D000EEE4F0E0808181608C93AEE4B0E0EEE447
:1042E000F0E080818D7F8C93AEE4B0E0EEE4F0E00E
:1042F000808184608C932FC0AEE4B0E0EEE4F0E007
:1043000080818E7F8C93AEE4B0E0EEE4F0E08081BB
:1043100082608C93AEE4B0E0EEE4F0E080818460F3
:104320008C9319C0AEE4B0E0EEE4F0E080818160EF
:104330008C93AEE4B0E0EEE4F0E0808182608C9398
:10434000AEE4B0E0EEE4F0E0808184608C9303C0E2
:10435000198201C01982898161960FB6F894DEBF77
:104360000FBECDBFCF91DF910895DF93CF9300D0E3
:10437000CDB7DEB79A838983E6E4F0E089819A813C
:10438000918380830F900F90CF91DF910895DF93F9
:10439000CF930F92CDB7DEB789838981282F30E084
:1043A00088EE93E0AC01249FC001259F900D349FBF
:1043B000900D112424EB30E0B9010E94583DCB014F
:1043C00088519C4F0F90CF91DF910895DF93CF9349
:1043D00000D000D000D0CDB7DEB78A837C836B835A
:1043E00081E089838A81282F30E03E832D838D816F
:1043F0009E8181309105B1F02D813E8122303105C1
:10440000C1F08D819E810097D1F48B819C818F3F7B
:10441000910509F028F4ECE5F0E08B8180830FC072
:1044200019820DC0EAE4F0E08B819C819183808346
:1044300006C0E8E4F0E08B819C81918380838981D0
:1044400026960FB6F894DEBF0FBECDBFCF91DF9199
:104450000895DF93CF93CDB7DEB760970FB6F8948A
:10446000DEBF0FBECDBF8F87688B80EA61E04F85CE
:104470000E949E0C80E090E0A8ECB2E48B879C87C1
:10448000AD87BE876B857C858D859E8520E030E07D
:104490004AEF54E40E941F02DC01CB018F8398870E
:1044A000A987BA876F81788589859A8520E030E071
:1044B00040E85FE30E94790388232CF481E090E0D8
:1044C0009E838D833FC06F81788589859A8520E0A2
:1044D0003FEF4FE757E40E94190318164CF56B8520
:1044E0007C858D859E8520E030E040E251E40E948D
:1044F0001F02DC01CB01BC01CD010E944900DC019F
:10450000CB019E838D830FC088EC90E09C838B83CE
:104510008B819C810197F1F79C838B838D819E8198
:1045200001979E838D838D819E81009769F714C0CA
:104530006F81788589859A850E944900DC01CB01CD
:104540009E838D838D819E819A83898389819A81BF
:104550000197F1F79A83898380EA62E048890E9493
:104560009E0C60960FB6F894DEBF0FBECDBFCF9104
:10457000DF910895DF93CF9300D0CDB7DEB7898365
:104580006A8380EA63E049810E949E0C0F900F903D
:10459000CF91DF910895DF93CF93CDB7DEB76097CA
:1045A0000FB6F894DEBF0FBECDBF8F87688B80EA51
:1045B00065E04F850E949E0C80E090E0A8ECB2E49C
:1045C0008B879C87AD87BE876B857C858D859E8517
:1045D00020E030E04AEF54E40E941F02DC01CB01EE
:1045E0008F839887A987BA876F81788589859A850F
:1045F00020E030E040E85FE30E94790388232CF458
:1046000081E090E09E838D833FC06F8178858985AE
:104610009A8520E03FEF4FE757E40E9419031816F0
:104620004CF56B857C858D859E8520E030E040E2F1
:1046300051E40E941F02DC01CB01BC01CD010E94AC
:104640004900DC01CB019E838D830FC088EC90E094
:104650009C838B838B819C810197F1F79C838B8357
:104660008D819E8101979E838D838D819E81009790
:1046700069F714C06F81788589859A850E94490001
:10468000DC01CB019E838D838D819E819A838983FA
:1046900089819A810197F1F79A83898380EA66E09C
:1046A00048890E949E0C60960FB6F894DEBF0FBE3C
:1046B000CDBFCF91DF910895DF93CF93CDB7DEB714
:1046C00060970FB6F894DEBF0FBECDBF8F87688BA3
:1046D00080EA69E04F850E949E0C80E090E0A8ECA3
:1046E000B2E48B879C87AD87BE876B857C858D8583
:1046F0009E8520E030E04AEF54E40E941F02DC0176
:10470000CB018F839887A987BA876F817885898540
:104710009A8520E030E040E85FE30E947903882337
:104720002CF481E090E09E838D833FC06F8178857B
:1047300089859A8520E03FEF4FE757E40E941903EF
:1047400018164CF56B857C858D859E8520E030E0C4
:1047500040E251E40E941F02DC01CB01BC01CD010B
:104760000E944900DC01CB019E838D830FC088EC41
:1047700090E09C838B838B819C810197F1F79C83D4
:104780008B838D819E8101979E838D838D819E81F8
:10479000009769F714C06F81788589859A850E9492
:1047A0004900DC01CB019E838D838D819E819A839C
:1047B000898389819A810197F1F79A83898380EAB5
:1047C0006AE048890E949E0C60960FB6F894DEBF9E
:1047D0000FBECDBFCF91DF910895DF93CF93CDB7BB
:1047E000DEB760970FB6F894DEBF0FBECDBF8F87E0
:1047F000688B80EA6DE04F850E949E0C80E090E01F
:10480000A8ECB2E48B879C87AD87BE876B857C85DF
:104810008D859E8520E030E04AEF54E40E941F021F
:10482000DC01CB018F839887A987BA876F81788550
:1048300089859A8520E030E040E85FE30E947903B3
:1048400088232CF481E090E09E838D833FC06F81AC
:10485000788589859A8520E03FEF4FE757E40E94ED
:10486000190318164CF56B857C858D859E8520E097
:1048700030E040E251E40E941F02DC01CB01BC01A8
:10488000CD010E944900DC01CB019E838D830FC0C6
:1048900088EC90E09C838B838B819C810197F1F75E
:1048A0009C838B838D819E8101979E838D838D81D7
:1048B0009E81009769F714C06F81788589859A85F4
:1048C0000E944900DC01CB019E838D838D819E81F6
:1048D0009A83898389819A810197F1F79A838983E1
:1048E00080EA6EE048890E949E0C60960FB6F894AC
:1048F000DEBF0FBECDBFCF91DF910895DF93CF9381
:10490000CDB7DEB760970FB6F894DEBF0FBECDBF50
:104910008F87688B80EA61E14F850E949E0C80E062
:1049200090E0A8ECB2E48B879C87AD87BE876B854F
:104930007C858D859E8520E030E04AEF54E40E941E
:104940001F02DC01CB018F839887A987BA876F810B
:10495000788589859A8520E030E040E85FE30E9411
:10496000790388232CF481E090E09E838D833FC0FF
:104970006F81788589859A8520E03FEF4FE757E47E
:104980000E94190318164CF56B857C858D859E85D4
:1049900020E030E040E251E40E941F02DC01CB0144
:1049A000BC01CD010E944900DC01CB019E838D83B7
:1049B0000FC088EC90E09C838B838B819C81019756
:1049C000F1F79C838B838D819E8101979E838D83DC
:1049D0008D819E81009769F714C06F8178858985E4
:1049E0009A850E944900DC01CB019E838D838D81D5
:1049F0009E819A83898389819A810197F1F79A83AD
:104A0000898380EA62E148890E949E0C60960FB615
:104A1000F894DEBF0FBECDBFCF91DF910895DF9335
:104A2000CF93CDB7DEB760970FB6F894DEBF0FBE59
:104A3000CDBF8F87688B80EA63E14F850E949E0C13
:104A400080E090E0A8ECB2E48B879C87AD87BE87BE
:104A50006B857C858D859E8520E030E04AEF54E4AF
:104A60000E941F02DC01CB018F839887A987BA8738
:104A70006F81788589859A8520E030E040E85FE3A2
:104A80000E94790388232CF481E090E09E838D833B
:104A90003FC06F81788589859A8520E03FEF4FE799
:104AA00057E40E94190318164CF56B857C858D859B
:104AB0009E8520E030E040E251E40E941F02DC01CC
:104AC000CB01BC01CD010E944900DC01CB019E83DA
:104AD0008D830FC088EC90E09C838B838B819C81BD
:104AE0000197F1F79C838B838D819E8101979E8333
:104AF0008D838D819E81009769F714C06F817885C1
:104B000089859A850E944900DC01CB019E838D83B3
:104B10008D819E819A83898389819A810197F1F79A
:104B20009A83898380EA64E148890E949E0C60969A
:104B30000FB6F894DEBF0FBECDBFCF91DF910895C1
:104B4000DF93CF93CDB7DEB760970FB6F894DEBF93
:104B50000FBECDBF80EA61E00E94BA0C888B80E076
:104B600090E0A8ECB2E48B879C87AD87BE876B850D
:104B70007C858D859E8520E030E04AEF54E40E94DC
:104B80001F02DC01CB018F839887A987BA876F81C9
:104B9000788589859A8520E030E040E85FE30E94CF
:104BA000790388232CF481E090E09E838D833FC0BD
:104BB0006F81788589859A8520E03FEF4FE757E43C
:104BC0000E94190318164CF56B857C858D859E8592
:104BD00020E030E040E251E40E941F02DC01CB0102
:104BE000BC01CD010E944900DC01CB019E838D8375
:104BF0000FC088EC90E09C838B838B819C81019714
:104C0000F1F79C838B838D819E8101979E838D8399
:104C10008D819E81009769F714C06F8178858985A1
:104C20009A850E944900DC01CB019E838D838D8192
:104C30009E819A83898389819A810197F1F79A836A
:104C4000898380EA62E00E94BA0C8F878889282FC6
:104C500030E084E690E0A901489F9001499F300D23
:104C6000589F300D11248F85882F90E0820F931F5D
:104C700060960FB6F894DEBF0FBECDBFCF91DF9127
:104C80000895DF93CF93CDB7DEB760970FB6F89452
:104C9000DEBF0FBECDBF80EA63E00E94BA0C888BF6
:104CA00080E090E0A8ECB2E48B879C87AD87BE875C
:104CB0006B857C858D859E8520E030E04AEF54E44D
:104CC0000E941F02DC01CB018F839887A987BA87D6
:104CD0006F81788589859A8520E030E040E85FE340
:104CE0000E94790388232CF481E090E09E838D83D9
:104CF0003FC06F81788589859A8520E03FEF4FE737
:104D000057E40E94190318164CF56B857C858D8538
:104D10009E8520E030E040E251E40E941F02DC0169
:104D2000CB01BC01CD010E944900DC01CB019E8377
:104D30008D830FC088EC90E09C838B838B819C815A
:104D40000197F1F79C838B838D819E8101979E83D0
:104D50008D838D819E81009769F714C06F8178855E
:104D600089859A850E944900DC01CB019E838D8351
:104D70008D819E819A83898389819A810197F1F738
:104D80009A83898380EA64E00E94BA0C8F878889BD
:104D9000282F30E084E690E0A901489F9001499FC8
:104DA000300D589F300D11248F85882F90E0820F91
:104DB000931F60960FB6F894DEBF0FBECDBFCF91A4
:104DC000DF910895DF93CF93CDB7DEB760970FB62D
:104DD000F894DEBF0FBECDBF80EA65E00E94BA0C3A
:104DE000888B80E090E0A8ECB2E48B879C87AD874D
:104DF000BE876B857C858D859E8520E030E04AEFFF
:104E000054E40E941F02DC01CB018F839887A9879D
:104E1000BA876F81788589859A8520E030E040E8FF
:104E20005FE30E94790388232CF481E090E09E8365
:104E30008D833FC06F81788589859A8520E03FEF1B
:104E40004FE757E40E94190318164CF56B857C85D3
:104E50008D859E8520E030E040E251E40E941F02F3
:104E6000DC01CB01BC01CD010E944900DC01CB017A
:104E70009E838D830FC088EC90E09C838B838B8115
:104E80009C810197F1F79C838B838D819E81019793
:104E90009E838D838D819E81009769F714C06F81F9
:104EA000788589859A850E944900DC01CB019E8323
:104EB0008D838D819E819A83898389819A810197CF
:104EC000F1F79A83898380EA66E00E94BA0C8F87A3
:104ED0008889282F30E084E690E0A901489F90015E
:104EE000499F300D589F300D11248F85882F90E0F9
:104EF000820F931F60960FB6F894DEBF0FBECDBF32
:104F0000CF91DF910895DF93CF93CDB7DEB7609750
:104F10000FB6F894DEBF0FBECDBF80EA69E00E94F5
:104F2000BA0C888B80E090E0A8ECB2E48B879C8779
:104F3000AD87BE876B857C858D859E8520E030E0C2
:104F40004AEF54E40E941F02DC01CB018F83988753
:104F5000A987BA876F81788589859A8520E030E0B6
:104F600040E85FE30E94790388232CF481E090E01D
:104F70009E838D833FC06F81788589859A8520E0E7
:104F80003FEF4FE757E40E94190318164CF56B8565
:104F90007C858D859E8520E030E040E251E40E94D2
:104FA0001F02DC01CB01BC01CD010E944900DC01E4
:104FB000CB019E838D830FC088EC90E09C838B8314
:104FC0008B819C810197F1F79C838B838D819E81DE
:104FD00001979E838D838D819E81009769F714C010
:104FE0006F81788589859A850E944900DC01CB0113
:104FF0009E838D838D819E819A83898389819A8105
:105000000197F1F79A83898380EA6AE00E94BA0CDB
:105010008F878889282F30E084E690E0A901489F97
:105020009001499F300D589F300D11248F85882F96
:1050300090E0820F931F60960FB6F894DEBF0FBE0C
:10504000CDBFCF91DF910895DF93CF93CDB7DEB77A
:1050500060970FB6F894DEBF0FBECDBF80EA6DE05B
:105060000E94BA0C888B80E090E0A8ECB2E48B87B9
:105070009C87AD87BE876B857C858D859E8520E06E
:1050800030E04AEF54E40E941F02DC01CB018F8321
:105090009887A987BA876F81788589859A8520E066
:1050A00030E040E85FE30E94790388232CF481E03C
:1050B00090E09E838D833FC06F81788589859A8536
:1050C00020E03FEF4FE757E40E94190318164CF514
:1050D0006B857C858D859E8520E030E040E251E443
:1050E0000E941F02DC01CB01BC01CD010E944900DE
:1050F000DC01CB019E838D830FC088EC90E09C8304
:105100008B838B819C810197F1F79C838B838D81AD
:105110009E8101979E838D838D819E81009769F783
:1051200014C06F81788589859A850E944900DC01C9
:10513000CB019E838D838D819E819A838983898112
:105140009A810197F1F79A83898380EA6EE00E9441
:10515000BA0C8F878889282F30E084E690E0A90177
:10516000489F9001499F300D589F300D11248F8525
:10517000882F90E0820F931F60960FB6F894DEBFE1
:105180000FBECDBFCF91DF910895DF93CF93CDB701
:10519000DEB760970FB6F894DEBF0FBECDBF80EAD2
:1051A00061E10E94BA0C888B80E090E0A8ECB2E448
:1051B0008B879C87AD87BE876B857C858D859E851B
:1051C00020E030E04AEF54E40E941F02DC01CB01F2
:1051D0008F839887A987BA876F81788589859A8513
:1051E00020E030E040E85FE30E94790388232CF45C
:1051F00081E090E09E838D833FC06F8178858985B3
:105200009A8520E03FEF4FE757E40E9419031816F4
:105210004CF56B857C858D859E8520E030E040E2F5
:1052200051E40E941F02DC01CB01BC01CD010E94B0
:105230004900DC01CB019E838D830FC088EC90E098
:105240009C838B838B819C810197F1F79C838B835B
:105250008D819E8101979E838D838D819E81009794
:1052600069F714C06F81788589859A850E94490005
:10527000DC01CB019E838D838D819E819A838983FE
:1052800089819A810197F1F79A83898380EA62E1A3
:105290000E94BA0C8F878889282F30E084E690E03E
:1052A000A901489F9001499F300D589F300D11244E
:1052B0008F85882F90E0820F931F60960FB6F89429
:1052C000DEBF0FBECDBFCF91DF910895DF93CF93A7
:1052D000CDB7DEB760970FB6F894DEBF0FBECDBF77
:1052E00080EA63E10E94BA0C888B80E090E0A8EC31
:1052F000B2E48B879C87AD87BE876B857C858D8567
:105300009E8520E030E04AEF54E40E941F02DC0159
:10531000CB018F839887A987BA876F817885898524
:105320009A8520E030E040E85FE30E94790388231B
:105330002CF481E090E09E838D833FC06F8178855F
:1053400089859A8520E03FEF4FE757E40E941903D3
:1053500018164CF56B857C858D859E8520E030E0A8
:1053600040E251E40E941F02DC01CB01BC01CD01EF
:105370000E944900DC01CB019E838D830FC088EC25
:1053800090E09C838B838B819C810197F1F79C83B8
:105390008B838D819E8101979E838D838D819E81DC
:1053A000009769F714C06F81788589859A850E9476
:1053B0004900DC01CB019E838D838D819E819A8380
:1053C000898389819A810197F1F79A83898380EA99
:1053D00064E10E94BA0C8F878889282F30E084E628
:1053E00090E0A901489F9001499F300D589F300DD2
:1053F00011248F85882F90E0820F931F60960FB63F
:10540000F894DEBF0FBECDBFCF91DF9108950F930B
:10541000DF93CF93CDB7DEB72B970FB6F894DEBFEF
:105420000FBECDBF89836A834B832C830D83A0E499
:10543000B0E0E0E4F0E0808180688C9383E060E09D
:1054400040E00E94E00683E061E042E00E94E00666
:105450008981882341F4A0E4B0E0E0E4F0E08081B9
:105460008F7B8C930AC08981813039F4A0E4B0E04D
:10547000E0E4F0E0808180648C938A81282F30E022
:105480003B872A878A859B8581309105C1F02A85D3
:105490003B852230310511F18A859B85009761F5A6
:1054A000A0E4B0E0E0E4F0E080818F7E8C93A0E4A3
:1054B000B0E0E0E4F0E080818F7D8C931DC0A0E43B
:1054C000B0E0E0E4F0E080818F7E8C93A0E4B0E077
:1054D000E0E4F0E0808180628C930EC0A0E4B0E054
:1054E000E0E4F0E0808180618C93A0E4B0E0E0E44F
:1054F000F0E0808180628C938B81882341F4A0E46A
:10550000B0E0E0E4F0E08081877F8C930AC08B817B
:10551000813039F4A0E4B0E0E0E4F0E0808188601C
:105520008C938C81282F30E039872887888599854E
:105530008230910509F448C028853985233031052A
:1055400054F488859985009799F02885398521300C
:10555000310521F17AC0888599858330910509F458
:1055600049C0288539852430310509F459C06DC0FA
:10557000A0E4B0E0E0E4F0E080818D7F8C93A0E4D3
:10558000B0E0E0E4F0E080818B7F8C93A0E4B0E0B9
:10559000E0E4F0E080818B7F8C9357C0A0E4B0E022
:1055A000E0E4F0E080818D7F8C93A0E4B0E0E0E463
:1055B000F0E080818B7F8C93A0E4B0E0E0E4F0E049
:1055C00080818B7F8C9341C0A0E4B0E0E0E4F0E008
:1055D00080818D7F8C93A0E4B0E0E0E4F0E08081F6
:1055E00084608C93A0E4B0E0E0E4F0E080818B7F05
:1055F0008C932BC0A0E4B0E0E0E4F0E08081826016
:105600008C93A0E4B0E0E0E4F0E0808184608C93CF
:10561000A0E4B0E0E0E4F0E080818B7F8C9315C0E3
:10562000A0E4B0E0E0E4F0E0808182608C93A0E44C
:10563000B0E0E0E4F0E0808184608C93A0E4B0E02E
:10564000E0E4F0E0808184608C938D81282F30E04D
:105650003F832E838E819F818130910571F02E8151
:105660003F812230310571F08E819F81009771F466
:10567000E9E2F0E080EA808309C0E9E2F0E08FEC43
:10568000808304C0E9E2F0E087E68083AAE2B0E02C
:10569000EAE2F0E0808180618C93AAE2B0E0EAE285
:1056A000F0E0808188608C932B960FB6F894DEBF73
:1056B0000FBECDBFCF91DF910F910895DF93CF93B0
:1056C0000F92CDB7DEB78983ECE2F0E08981808369
:1056D000EBE2F0E080818295869586958370882F35
:1056E00090E081709070009799F30F90CF91DF91C7
:1056F0000895DF93CF93CDB7DEB7EBE2F0E0808182
:105700008823DCF7ECE2F0E08081CF91DF9108950F
:10571000DF93CF9300D0CDB7DEB79A838983898199
:105720009A819093D3018093D2010F900F90CF91E3
:10573000DF910895DF93CF9300D000D0CDB7DEB7CF
:1057400089836A838981282F30E03C832B838B8176
:105750009C818130910549F12B813C8122303105BA
:105760002CF48B819C81009761F05AC02B813C8185
:105770002230310571F18B819C8183309105E9F1F3
:105780004FC0ABE3B0E0EBE3F0E08081482F8A81CB
:10579000282F30E081E090E0022E02C0880F991F90
:1057A0000A94E2F784278C933BC0A8E3B0E0E8E3D7
:1057B000F0E08081482F8A81282F30E081E090E05E
:1057C000022E02C0880F991F0A94E2F784278C9357
:1057D00027C0A5E3B0E0E5E3F0E08081482F8A81AF
:1057E000282F30E081E090E0022E02C0880F991F40
:1057F0000A94E2F784278C9313C0A2E3B0E0E2E3BB
:10580000F0E08081482F8A81282F30E081E090E00D
:10581000022E02C0880F991F0A94E2F784278C9306
:105820000F900F900F900F90CF91DF9108950F93ED
:105830001F93DF93CF93CDB7DEB7CA54D0400FB6D6
:10584000F894DEBF0FBECDBFFE01E85BFF4F918332
:105850008083FE01E65BFF4F6083FE01E65BFF4F46
:105860008081813009F078C185E00E945E2BFE01C5
:10587000ED5BFF4F80E090E0A8E4B3E48083918388
:10588000A283B3838E01015C1F4FFE01ED5BFF4FCE
:10589000608171818281938120E030E04AEF54E49D
:1058A0000E941F02DC01CB01F80180839183A28357
:1058B000B383FE01FF96608171818281938120E034
:1058C00030E040E85FE30E94790388232CF481E014
:1058D00090E09EAF8DAF46C0FE01FF966081718162
:1058E0008281938120E03FEF4FE757E40E94190344
:1058F000181664F5FE01ED5BFF4F608171818281B6
:10590000938120E030E040E251E40E941F02DC017C
:10591000CB01BC01CD010E944900DC01CB019EAF4F
:105920008DAF0FC088EC90E09CAF8BAF8BAD9CAD82
:105930000197F1F79CAF8BAF8DAD9EAD01979EAFF8
:105940008DAF8DAD9EAD009769F716C0FE01FF9635
:1059500060817181828193810E944900DC01CB01C9
:105960009EAF8DAF8DAD9EAD9AAF89AF89AD9AAD2B
:105970000197F1F79AAF89AF86E00E945E2B80E035
:1059800090E0A8E4B3E48DAB9EABAFABB8AF6DA92C
:105990007EA98FA998AD20E030E04AEF54E40E9440
:1059A0001F02DC01CB0189AB9AABABABBCAB69A9E5
:1059B0007AA98BA99CA920E030E040E85FE30E942F
:1059C000790388232CF481E090E098AB8FA73FC047
:1059D00069A97AA98BA99CA920E03FEF4FE757E47A
:1059E0000E94190318164CF56DA97EA98FA998ADD0
:1059F00020E030E040E251E40E941F02DC01CB01D4
:105A0000BC01CD010E944900DC01CB0198AB8FA7FE
:105A10000FC088EC90E09EA78DA78DA59EA501974D
:105A2000F1F79EA78DA78FA598A9019798AB8FA78F
:105A30008FA598A9009769F714C069A97AA98BA9BD
:105A40009CA90E944900DC01CB0198AB8FA78FA5D0
:105A500098A99CA78BA78BA59CA50197F1F79CA75C
:105A60008BA78091D4010E945E2B80E090E0A8E497
:105A7000B3E48FA398A7A9A7BAA76FA178A589A512
:105A80009AA520E030E04AEF54E40E941F02DC01B6
:105A9000CB018BA39CA3ADA3BEA36BA17CA18DA1C5
:105AA0009EA120E030E040E85FE30E947903882374
:105AB0002CF481E090E09AA389A33FC06BA17CA164
:105AC0008DA19EA120E03FEF4FE757E40E9419030C
:105AD00018164CF56FA178A589A59AA520E030E0AD
